:020000040800F2
:1000000058100020911200087D1200087F1200088D
:100010008112000883120008851200080000000009
:10002000000000000000000000000000871200082F
:1000300089120008000000008B1200088D120008D1
:10004000C1120008C5120008C9120008CD1200082C
:10005000D1120008D5120008D9120008DD120008DC
:10006000E1120008E5120008E9120008ED1200088C
:10007000F1120008F5120008F9120008FD1200083C
:100080000113000805130008091300080D130008E8
:100090001113000815130008191300081D13000898
:1000A0002113000825130008291300082D13000848
:1000B0003113000835130008391300083D130008F8
:1000C0004113000845130008491300084D130008A8
:1000D0005113000855130008591300085D13000858
:1000E000611300086513000869130008F8B5DFF80C
:1000F000CC4500F003F9DFF8C85500F003F9297882
:1001000088420BD06878401C6870C0B2152807D3AD
:1001100000F0F4F800F0F6F8287001E000206870B4
:10012000042100F0ECF800F0EDF8297988420CD0B9
:100130006879401C6871C0B2152808D3042100F00A
:10014000DEF800F0DFF8287101E000206871082176
:1001500000F0D5F800F0D6F8297A88420CD0687AF9
:10016000401C6872C0B2152808D3082100F0C7F8F7
:1001700000F0C8F8287201E000206872102100F039
:10018000BEF800F0BFF8297B88420CD0687B401C89
:100190006873C0B2152808D3102100F0B0F800F041
:1001A000B1F8287301E000206873202100F0A7F85F
:1001B00000F0A8F8297C88420CD0687C401C687448
:1001C000C0B2152808D3202100F099F800F09AF861
:1001D000287401E000206874402100F090F8DFF8F6
:1001E000E46400F08FF8317888420CD07078401CBD
:1001F0007070C0B2152808D3402100F080F800F0DC
:1002000081F8307001E000207070DFF8BC7400F0FD
:1002100070F800F077F8297D88420BD0687D401C8B
:100220006875C0B2152807D300F063F800F06AF8CB
:10023000287501E0002068754FF4006100F05BF85C
:1002400000F060F8317988420DD07079401C7071EF
:10025000C0B2152809D34FF4006100F04CF800F04B
:1002600051F8307101E0002070714FF4806100F0AE
:1002700042F800F047F8317A88420DD0707A401C7D
:100280007072C0B2152809D34FF4806100F033F8C2
:1002900000F038F8307201E000207072042100F0A4
:1002A0002AF800F02FF8317B88420CD0707B401C7C
:1002B0007073C0B2152808D3042100F01CF800F0B8
:1002C00021F8307301E000207073012100F017F86D
:1002D000297E88420AD0687E401C6876C0B2152804
:1002E00006D3012100F00BF82876F1BD00206876D6
:1002F000F1BD4FF40051384600F059BA02212046B2
:1003000000F055BAC04300F00100704710B5DFF8A7
:10031000B043607F012846D12079217A890041EAE3
:10032000C000217B40EA4100217C0843C0B2DFF8D5
:1003300094130A790B7A5B0043EA8202097B11432A
:10034000C9B2E27F41F2BE63A8B179B172B9401E71
:1003500058430E2190FBF1F000F22E702084208C87
:1003600000280EBF0121022100200CE00020002AFD
:10037000F4D0208409E00029F8D0002AF6D1481EE4
:1003800058430621E6E700F042F8217DDFF8380304
:1003900022780AB921B902E009B9002200E001225D
:1003A000102100F00FFA10BDDFF81403018C428C0D
:1003B0008A4200D1704780B5437F012B26D1DFF8F8
:1003C00004331B78EBB1037F13B1591E017701BDD4
:1003D0008A420CD240F22E739A4232BF4384913249
:1003E0004284428C8A420CD20A2101770AE040F210
:1003F0002F739A4234BF0022913A4284428C914238
:10040000F2D34184418CB14800F075FA01BD10B5BA
:10041000AF4AB04CC8B929B1022911D009D3032978
:1004200011D012E04FF40051104600F0C9F900203D
:1004300007E04FF40051104600F0C0F9012000E041
:100440000220207010BD0320FBE7012818D129B13C
:10045000022911D009D3032910D010BD4FF48041D7
:10046000104600F0ABF9002009E04FF4804110463F
:1004700000F0A6F9012002E0022000E003206070F5
:1004800010BD38B5934C6088401C60802178904D39
:100490004FF4FA7280B2904210D2022901D003299F
:1004A00001D100F049F86078022801D0032837D143
:1004B0004FF48041284600F083F931E0A0F5FA724C
:1004C0004FF4FA7392B29A420BD2022901D0032957
:1004D00001D100F02CF8607802281CD003281FD12D
:1004E00019E0A0F57A7292B29A4207D2022901D19C
:1004F00000F022F86078022812D1D9E740F2DC52ED
:10050000801A80B298420BD2022901D100F00FF874
:100510006078022804D14FF48041284600F04EF95B
:100520006088B0F5FA6F24BF0020608031BD4FF4C1
:100530000051284600F044B94FF40051284600F01D
:100540003DB980B5072000F0ECFA00F013FB00F095
:100550001FFB00F00DF800225F4B00F051FB002262
:100560005E4B00F04DFBFFE7BDE8044000F01ABC15
:100570004FF066325A4B00F043BB38B5504C607FA9
:10058000002839D1A07F282802D2401CA07731BD95
:100590004D4D207E012809D100F077F800F06DF86C
:1005A00000F02BF8E07F40F00100E077FFF7C9FF93
:1005B0004C4900F03FFC05D3FFF7C3FF4A4900F068
:1005C0004BFC0AD8002100F061F800F056F800F06A
:1005D00014F8E07F40F00400E077E07F002809D1C4
:1005E0000121FFF714FF00210120FFF710FF012276
:1005F00000F046F80120607731BD00224FF48051B1
:10060000284600F0DFB838B52D4C607F012833D183
:10061000207E012807D100F038F800F02EF8E07FA6
:1006200040F0010002E0E07F00F0FE00E077FFF71D
:1006300088FF2C4900F0FEFB05D3FFF782FF2A4913
:1006400000F00AFC08D8002100F020F800F015F8AE
:10065000E07F40F0040002E0E07F00F0FB00E07784
:10066000194DE07F08B1002204E000210120FFF7CE
:10067000CEFE012200F004F831BD03210120C6E6C0
:100680004FF48051284600F09DB801210020BEE6BD
:1006900080B500F049F9FFF739FEFFF7B4FFFAE73C
:1006A00080B512480168491C0160FFF71FFDFFF784
:1006B00064FFFFF7E6FEBDE8014075E60008014073
:1006C0001400002038000020000C01400008004009
:1006D0000010014050000020000031400000E03FC9
:1006E00066664A3F000094410100D4414800002062
:1006F0002DE9F041CB7803F00F02DB0644BF8B7885
:100700001A430B8801240F25DEB21EB3D0F800C0B7
:10071000002604FA06F7BE460EEA0308F04514D197
:100720004FEA860E05FA0EF82CEA080C02FA0EFEC5
:100730004EEA0C0C91F803E0BEF1280F08BF4761A8
:1007400003D0BEF1480F08BF0761761C082EE0D326
:10075000C0F800C04FF48076B34226D3D0F804C06E
:10076000002606F1080704FA07F7BE460EEA03085A
:10077000F04515D14FEA860E05FA0EF82CEA080C62
:1007800002FA0EFE4EEA0C0C91F803E0BEF1280FBF
:1007900008BF476191F803E0BEF1480F08BF076149
:1007A000761C082EDDD3C0F804C0BDE8F081806857
:1007B0000140080018BF0120C0B2704701617047B6
:1007C00041617047002A14BF01614161704770B5F3
:1007D000104A1468C0F3034583B2460D3601B34096
:1007E00000F44016B6F5401F06D124F0706014687E
:1007F00024F07064146009E0C00243BF0320A840E5
:1008000024EA000024EA030040F0706001B11843BC
:10081000106070BD0400014010B5028802F08F0224
:1008200002800288CB884C8823431A4302808A883E
:1008300082850A880285204B984202D01F4B98423D
:1008400001D1097A01860121818210BD70B5028C27
:100850004FF6FF631A400284048C8288838B4FF624
:100860008C752B400D882B434FF6FF552C400D897E
:100870004E88354344EA05240F4EB04202D00F4E55
:10088000B04213D14FF2FF752C404D8944EA052444
:100890004FF6FF352C408D8844EA052444F6FF7559
:1008A0002A408D89CE89354342EA051282808383AE
:1008B000C9888187048470BD002C01400034014048
:1008C0000029018812BF41F0010140F2FE321140BF
:1008D000018070470029018812BF41F0800140F279
:1008E0007F32114001807047828B4FF6F7731A40B8
:1008F0001143818370478187704710B450F8041BFF
:1009000081B102681218001D50F8043BDC0744BF97
:10091000A9F10104E31852F8044B43F8044B091FF2
:10092000F9D1EBE710BC704700B585B000F0A6FA2E
:100930000121874800F060FB01217D2000F053FB7E
:1009400000F05BF800F0ABF800F01DF800F061F883
:1009500000A800F00DFB00984FF47A71B0FBF1F0A5
:100960007C49B0F1807F0AD27B4A0002000A401E17
:100970005060F02008700020906007201060202058
:10098000087005B000BD38B54FF4C04000F07DF8E8
:100990007248FFF7ADFE0120ADF80000482000F0DE
:1009A00026F86F4C00A92046FFF7A2FE42F604404D
:1009B000ADF80000042000F01AF86A4D00A928469E
:1009C000FFF796FE01216848FFF701FF41F218008A
:1009D00000F05BF82846FFF78BFE7E20ADF80000A4
:1009E000042000F055F82046FFF782FE31BD8DF857
:1009F000030003208DF80200704780B500214FF0FE
:100A0000006000F01EFB4FF4A060BDE8024000F063
:100A100013BB10B588B00121042000F0EDFA4FF4AB
:100A20008070ADF80000182000F032F84D48FFF754
:100A30005FFE42F22730ADF8080000200190ADF8CB
:100A40000A004A4C01A92046FFF7E6FE7020ADF8E7
:100A500010000120ADF812000220ADF8180004A922
:100A60002046FFF7F3FE08212046FFF73DFF012156
:100A70002046FFF72FFF01212046FFF721FF00212D
:100A80002046FFF738FF08B010BDADF80000102079
:100A90008DF8030003208DF8020000A9704710B5FF
:100AA00086B001214FF4007000F09DFA4FF4004031
:100AB00000F059FA8020ADF8000000208DF8030006
:100AC00000A92748FFF714FE294C204600F0C8FA79
:100AD00000200190ADF808004FF460200390002042
:100AE000049001208DF8140001A9204600F0DFFADF
:100AF000012000F05CFB0121204600F0F6FA2046C0
:100B000000F0FCFA204600F0FEFA0028FAD1204658
:100B100000F0FDFA204600F0FFFA0028FAD106B0F6
:100B200010BD10B5124C072301220146204600F0EB
:100B300002FB0121204600F0F5FA0221204600F0D8
:100B40004DFB0028F9D02046BDE8104000F02CBB3A
:100B50000100001823ED00E010E000E0001001406B
:100B600000080140000C0140000230000008004075
:100B70000024014000280AD0B0FA80F18840D1F169
:100B80009D01C905020672F1004241EB1020704739
:100B90005FF0FF0C1CEAD05114BF614506E0C110A4
:100BA000400721F0E04101F16051704779B900F050
:100BB000004100020AD0B0FA80FC00FA0CF001F10A
:100BC0006051A1EB0C5101EBD0214005704741026F
:100BD0000CBF40F4E0016FF000010020704750F8B6
:100BE000041B61B150F8042BD30744BFA9F10103E2
:100BF0009A18002342F8043B091FFAD1EFE7704727
:100C0000B0B581EA030C0CF0004C40F2FF7515EA18
:100C100011541DBF15EA1357AC42AF4239E0E41935
:100C200023EA455343F48013C90241F0004141EAED
:100C3000505EC7021100A7FB020200284FF000001F
:100C4000EEFB01204FF00001E3FB072118BF42F04B
:100C50000102401800214941E3FB0E01A4F5806424
:100C60000F0302D252004041494154F101046CDDAE
:100C7000470872F1004250F1000051EB0451A1F518
:100C800080115CBF41EA0C01B0BD4CEA0551002067
:100C9000B0BD05EA1357AC4214BFAF4241E050EA81
:100CA000410E1CBF52EA430E02E061460020B0BD77
:100CB00024423C441BD15FEA070EF6D0090302BF71
:100CC00001460020AEF1140EB1FA81F7AEEB070435
:100CD00001FA07FE0C37C7F1200100FA07F7C840F8
:100CE0004EEA000E23EA455343F48013A2E733F0A3
:100CF0000043B3FA83F704BFB2FA82FE77440B3F96
:100D0000E41BB7F1200E2FBF02FA0EF3BB40C7F170
:100D1000200E22FA0EFE38BF43EA0E03BA40641CCE
:100D200082E750EA410E14BF52EA430E6FF0000111
:100D30004FF4001717EB430F8ABF194617EB410F0B
:100D4000B5E74CEA05510020B0BDD4F10104B4F17F
:100D500020070FDAC4F12007520828BF42F0010231
:100D600010FA07F501FA07F7E1BF2A43E0403843DC
:100D7000E1400FE0352C98DCC7F1200452EA400234
:100D800020FA07F218BF42F0010231FA07F0A14041
:100D90000A43002172F1004250F1000051EB0C01B6
:100DA000B0BD00004FEAF17CBCF1E04C2CBFBCF5BB
:100DB000001F11E05FEA4C0C34BFBCF17F5F2EE0F6
:100DC0005FEA9C0C4FEA0C1C4FEA3C0CC10071F12D
:100DD00000414CEB50707047C90241EA5051C002CB
:100DE00018BF41F0010141F000414FEA6C50C0F1E1
:100DF0000900212810D240EACC7CCCF1200C11FA59
:100E00000CF070F10040CCF1200C21FA0CF00CF049
:100E1000004C40EB0C0070474FEACC707047490023
:100E200011F5001F04D84FEACC10FF30C005704701
:100E3000C81770474FF0807C1CEB400F94BF1CEB31
:100E4000410F05E040EA010C5FEA4C0C01D28842F8
:100E5000704718BF814270474FF0807C1CEB400FF9
:100E600094BF1CEB410F05E040EA010C5FEA4C0C1B
:100E700001D28142704718BF8842704782B034481F
:100E8000016841F0010101604168324A114041604E
:100E90000168314A11400160016821F4802101603C
:100EA000416821F4FE0141604FF41F01816000217F
:100EB00001910091016841F480310160016801F401
:100EC000003100910199491C0191009919B90199CA
:100ED000B1F5A06FF2D10168490C01F00101009158
:100EE0000099012900D0FEE71C490A6842F010026F
:100EF0000A600A68920892000A600A6842F00202D8
:100F00000A604168416041684160416841F4806124
:100F10004160416821F47C114160416841F4E8116D
:100F20004160016841F08071016001688901FCD570
:100F30004168890889004160416841F002014160CF
:100F4000416801F00C010829FAD102B07047000095
:100F5000001002400000FFF8FFFFF6FE00200240F4
:100F60001043086070472D490A6822F44042F7E7B1
:100F700030B52A490A682A4B02F00C02082A0ED121
:100F80000A680C68C2F38342921C264D5543E40361
:100F900001D42B4603E00C68A403FAD45343036046
:100FA0000B68214A0468C3F303139B5C24FA03F320
:100FB00043600B684468C3F302239B5C24FA03F389
:100FC00083600B684468C3F3C2239B5C24FA03F379
:100FD000C3600968C368C1F381318918097CB3FB18
:100FE000F1F1016130BD114A0029116814BF0843B5
:100FF00021EA0000106070470D4A0029116814BFF3
:10100000084321EA0000106070470A4A002911686D
:1010100014BF084321EA000010607047041002402A
:1010200000127A0000093D00000000201810024064
:101030001C1002400C100240054908430549086095
:101040007047054A11400843044908607047000092
:101050000000FA050CED00E080FFFF1F08ED00E046
:1010600080B55849884208D101214FF40070FFF73C
:10107000CCFF00214FF4007016E05349884208D19C
:1010800001214FF48060FFF7C0FF00214FF4806022
:101090000AE04E49884209D101214FF40040FFF790
:1010A000B4FF00214FF40040FFF7AFFF01BD4268DD
:1010B000474B1A400B681A430B7942EA03224260FD
:1010C0008268444B1A40CB681A438B681A434B79A9
:1010D00042EA43028260C26A22F47002097C491E1D
:1010E000C9B242EA0151C16270470029816812BF4A
:1010F00041F001014908490081607047816841F071
:1011000008018160704780680006C00E07E08168B2
:1011100041F004018160704780680006800E00F095
:10112000010070470029816814BF41F4A00121F437
:10113000A0018160704770B5032407250A290AD3EE
:10114000A1F10A067443C668A54026EA0505A34036
:101150002B43C36007E04C430669A54026EA05051A
:10116000A3402B43036105231F24072A08D2521EE4
:101170005A43436B9440A34391401943416370BD6C
:101180000D2A08D2D21F5A43036B9440A3439140C7
:101190001943016370BD0D3A5A43C36A9440A34397
:1011A00091401943C16270BDC06C80B270470A495A
:1011B0000028086814BF40F4000020F40000086014
:1011C000704700000024014000280140003C01401D
:1011D000FFFEF0FFFDF7F1FF082401400068014029
:1011E000080018BF0120704710B5084979441C3128
:1011F000074C7C441A34A14206D0081D0A685118D5
:1012000088470146A142F8D110BD00BF0800000088
:1012100028000000CBF9FFFF400000001400002070
:1012200000000000D7F6FFFF14000000400100009E
:10123000000000200000000000F009F8002801D0A4
:10124000FFF7D2FF0020FFF723FA00F002F8012099
:10125000704780B500F002B800BF0000074638466E
:1012600000F002F8FBE7000080B5C046C046024A25
:1012700011001820ABBEFBE7260002007047FEE716
:10128000FEE7FEE7FEE7704770477047FFF708BAD2
:10129000C046C046C046C046FFF7CEFFFFF7EEBFD0
:1012A000FFF7EDBFFFF7ECBFFFF7EBBFFFF7EABFBC
:1012B000FFF7E9BFFFF7E8BFFFF7E7BFFFF7E6BFBC
:1012C000FFF7FEBFFFF7FEBFFFF7FEBFFFF7FEBF52
:1012D000FFF7FEBFFFF7FEBFFFF7FEBFFFF7FEBF42
:1012E000FFF7FEBFFFF7FEBFFFF7FEBFFFF7FEBF32
:1012F000FFF7FEBFFFF7FEBFFFF7FEBFFFF7FEBF22
:10130000FFF7FEBFFFF7FEBFFFF7FEBFFFF7FEBF11
:10131000FFF7FEBFFFF7FEBFFFF7FEBFFFF7FEBF01
:10132000FFF7FEBFFFF7FEBFFFF7FEBFFFF7FEBFF1
:10133000FFF7FEBFFFF7FEBFFFF7FEBFFFF7FEBFE1
:10134000FFF7FEBFFFF7FEBFFFF7FEBFFFF7FEBFD1
:10135000FFF7FEBFFFF7FEBFFFF7FEBFFFF7FEBFC1
:10136000FFF7FEBFFFF7FEBFFFF7FEBF0000000064
:101370000102030401020304060708090204060827
:04000005080012914C
:00000001FF
