:020000040800F2
:1000000020150020793E00089D3D00089F3D000816
:10001000A13D0008A33D0008A53D00080000000028
:10002000000000000000000000000000A73D0008E4
:10003000A93D000800000000AB3D0008AD3D0008F0
:10004000A93E0008AD3E0008B13E0008B53E0008DC
:10005000B93E0008BD3E0008C13E0008C53E00088C
:10006000C93E0008CD3E0008D13E0008D53E00083C
:10007000D93E0008DD3E0008E13E0008E53E0008EC
:10008000E93E0008ED3E0008F13E0008F53E00089C
:10009000B53D0008FD3E0008013F0008053F00088F
:1000A000093F00080D3F0008113F0008153F0008F8
:1000B000193F00081D3F0008213F0008253F0008A8
:1000C000293F00082D3F0008313F0008353F000858
:1000D000393F00083D3F0008413F0008453F000808
:1000E000493F00084D3F0008513F00082DE9F84FF7
:1000F0002021DFF8000D00F009FF04004FF400613B
:10010000DFF8880B00F002FF05004FF48061DFF894
:100110007C0B00F0FBFE15F001016208494110F074
:10012000010051EA80040421DFF8640B00F0EEFEC8
:1001300010F0010054EAC0044FF40071DFF84C0BDA
:1001400000F0E4FE05004FF48071DFF8400B00F092
:10015000DDFE06008021DFF8340B00F0D7FE16F03C
:1001600001016A08494110F0010051EA800540216F
:10017000DFF8180B00F0CAFE10F0010055EAC005C8
:100180008021DFF8700C00F0C1FE8DF800004021E6
:10019000DFF8600C00F0BAFE83464FF48051DFF8C0
:1001A000EC0A00F0B3FE06004FF40061DFF8480CE3
:1001B00000F0ACFE07004FF48061DFF83C0C00F06B
:1001C000A5FE80464FF40071DFF82C0C00F09EFE77
:1001D00081464FF48071DFF8200C00F097FE8246D4
:1001E0004FF40051DFF80C0C00F090FE01009DF878
:1001F0000000C0437FEA0B0212F0010240085241A6
:10020000F04310F0010052EA8000FA4312F00102BC
:1002100050EAC2007FEA080212F0010250EA02101E
:100220007FEA090212F0010250EA42107FEA0A0254
:1002300012F0010250EA8210C1F3000191F00101B5
:1002400050EAC1160121DFF8440A00F05FFE10F009
:100250000100DFF8A81B08701021DFF8300A00F059
:1002600055FE10F00100DFF8981B08700221DFF83E
:100270001C0A00F04BFE10F00100DFF8881B08702C
:100280002021DFF8080A00F041FE10F00100DFF83D
:10029000781B08704FF48061DFF8580B00F036FED1
:1002A00010F00100DFF8641B08704FF40061DFF804
:1002B000440B00F02BFE10F00100DFF8541B087017
:1002C000DFF8500B0078E4B2A04207D0DFF8440B0F
:1002D0004088002802D1DFF83C0B4470DFF8340B73
:1002E0004078E4B2A0421ED1DFF8280B4078DFF856
:1002F000241B0978884216D0DFF8180B4088401C70
:10030000DFF8101B4880DFF80C0B40880B2814D353
:10031000DFF8000B4078DFF8FC1A0870DFF8F40A09
:100320000021418009E0DFF8EC0ADFF8E81A0978DB
:100330004170DFF8E00A00214180DFF8DC0A007834
:10034000EDB2A84207D0DFF8D00A4088002802D1D9
:10035000DFF8C40A4570DFF8C00A4078EDB2A84261
:100360001ED1DFF8B40A4078DFF8AC1A0978884269
:1003700016D0DFF8A40A4088401CDFF89C1A488099
:10038000DFF8940A40880B2814D3DFF88C0A4078F1
:10039000DFF8841A0870DFF8800A0021418009E044
:1003A000DFF8740ADFF8701A09784170DFF8680A1C
:1003B00000214180DFF8640A0078F6B2B04207D02D
:1003C000DFF8580A4088002802D1DFF8500A46704A
:1003D000DFF8480A4078F6B2B0421ED1DFF83C0A96
:1003E0004078DFF8381A0978884216D0DFF82C0AEE
:1003F0004088401CDFF8241A4880DFF8200A408833
:100400000B2814D3DFF8140A4078DFF8101A0870AC
:10041000DFF8080A0021418009E0DFF8000ADFF870
:10042000FC1909784170DFF8F40900214180DFF8F8
:10043000F009DFF8E81909780170DFF8C009002138
:1004400041710121DFF8440800F060FDDFF8AC19CC
:100450000978C0B210F0010081420ED0DFF89C098B
:100460004088002809D10121DFF8200800F04EFD66
:1004700010F00100DFF8841948700121DFF80C0842
:1004800000F044FDDFF874194978C0B210F00100A3
:10049000814239D1DFF864094078DFF860190978C2
:1004A000884231D0DFF854094088401CDFF84C19ED
:1004B0004880DFF8480940880B282FD3DFF83C0933
:1004C0004078DFF838190870DFF8300900214180E2
:1004D000DFF828090078012808D1DFF82009012178
:1004E0000171DFF818090121817117E0DFF80C09AB
:1004F00002210171DFF8040900218171DFF8FC0895
:100500000021A0F8071009E0DFF8F008DFF8EC1888
:1005100009784170DFF8E40800214180DFF8DC0849
:10052000807901281AD1DFF8D408B0F80700401C00
:10053000DFF8C818A1F80700DFF8C008B0F8070016
:1005400041F28831884209D3DFF8B00841F288319E
:10055000A0F80710DFF8A40801214171DFF8A00816
:10056000002141711021DFF8240700F0CFFCDFF8F3
:1005700090180978C0B210F0010081420ED0DFF867
:1005800080084088002809D11021DFF8000700F01A
:10059000BDFC10F00100DFF8681848701021DFF88A
:1005A000EC0600F0B3FCDFF858184978C0B210F040
:1005B0000100814239D1DFF848084078DFF840185F
:1005C0000978884231D0DFF838084088401CDFF8CD
:1005D00030184880DFF8280840880B282FD3DFF830
:1005E00020084078DFF818180870DFF81408002198
:1005F0004180DFF80C080078012808D1DFF80008F6
:1006000001210171DFF8F8070121817117E0DFF89E
:10061000F00702210171DFF8E80700218171DFF89E
:10062000E0070021A0F8071009E0DFF8D407DFF8A1
:10063000D01709784170DFF8C80700214180DFF842
:10064000C007807901281AD1DFF8B407B0F8070095
:10065000401CDFF8AC17A1F80700DFF8A407B0F8DA
:10066000070041F28831884209D3DFF8940741F24C
:100670008831A0F80710DFF8880701214171DFF801
:100680008407002141710221DFF8000600F03EFCE2
:10069000DFF870170978C0B210F0010081420ED067
:1006A000DFF860074088002809D10221DFF8DC0567
:1006B00000F02CFC10F00100DFF848174870022110
:1006C000DFF8C80500F022FCDFF838174978C0B21F
:1006D00010F00100814239D1DFF828074078DFF8B7
:1006E00024170978884231D0DFF818074088401C69
:1006F000DFF810174880DFF80C0740880B282FD34D
:10070000DFF800074078DFF8FC160870DFF8F40621
:1007100000214180DFF8EC060078012808D1DFF8DD
:10072000E40601210171DFF8DC060121817117E087
:10073000DFF8D00602210171DFF8C80600218171BF
:10074000DFF8C0060021A0F8071009E0DFF8B406C2
:10075000DFF8B01609784170DFF8A8060021418063
:10076000DFF8A006807901281AD1DFF89806B0F8E2
:100770000700401CDFF88C16A1F80700DFF884069C
:10078000B0F8070041F28831884209D3DFF87406D7
:1007900041F28831A0F80710DFF8680601214171A5
:1007A000DFF86406002141712021DFF8E00400F049
:1007B000ADFBDFF854160978C0B210F00100814299
:1007C0000ED0DFF844064088002809D12021DFF848
:1007D000BC0400F09BFB10F00100DFF82C16487001
:1007E0002021DFF8A80400F091FBDFF81C164978FF
:1007F000C0B210F00100814239D1DFF80C06407818
:10080000DFF804160978884231D0DFF8FC0540880B
:10081000401CDFF8F4154880DFF8EC0540880B2811
:100820002FD3DFF8E4054078DFF8DC150870DFF837
:10083000D80500214180DFF8D0050078012808D1D3
:10084000DFF8C40501210171DFF8BC0501218171C8
:1008500017E0DFF8B40502210171DFF8AC050021D3
:100860008171DFF8A4050021A0F8071009E0DFF886
:100870009805DFF8941509784170DFF88C050021A0
:100880004180DFF88405807901281AD1DFF87805E6
:10089000B0F80700401CDFF87015A1F80700DFF87A
:1008A0006805B0F8070041F28831884209D3DFF8C3
:1008B000580541F28831A0F80710DFF84C050121F6
:1008C00041714FF48061DFF82C0500F01FFBDFF869
:1008D0003C150978C0B210F0010081420FD0DFF85A
:1008E0002C05408800280AD14FF48061DFF8040508
:1008F00000F00CFB10F00100DFF8101548704FF409
:100900008061DFF8F00400F001FBDFF800154978A2
:10091000C0B210F0010081422CD1DFF8F004407821
:10092000DFF8E8140978884224D0DFF8E004408832
:10093000401CDFF8D8144880DFF8D00440880B282A
:1009400022D3DFF8C8044078DFF8C0140870DFF85D
:10095000BC0400214180DFF8B4040078012804D1F0
:10096000DFF8A804012101710EE0DFF8A0040221E4
:10097000017109E0DFF89404DFF890140978417000
:10098000DFF88804002141804FF40061DFF864043F
:1009900000F0BCFADFF878140978C0B210F001005A
:1009A00081420FD0DFF86804408800280AD14FF454
:1009B0000061DFF8400400F0A9FA10F00100DFF850
:1009C000501448704FF40061DFF8280400F09EFADC
:1009D000DFF83C144978C0B210F0010081422CD1FC
:1009E000DFF82C044078DFF828140978884224D0F6
:1009F000DFF81C044088401CDFF814144880DFF83E
:100A0000100440880B2822D3DFF804044078DFF874
:100A100000140870DFF8F80300214180DFF8F003CC
:100A20000078012804D1DFF8E803012101710EE00C
:100A3000DFF8DC030221017109E0DFF8D403DFF8FD
:100A4000D01309784170DFF8C803002141804FF4CA
:100A50000041DFF8A00300F059FADFF8C813097865
:100A6000C0B281420DD0DFF8BC034088002808D115
:100A70004FF40041DFF87C0300F048FADFF8A413DC
:100A800048704FF40041DFF86C0300F03FFADFF8E4
:100A900094134978C0B281422CD1DFF888034078A2
:100AA000DFF880130978884224D0DFF87803408883
:100AB000401CDFF870134880DFF868034088652821
:100AC00022D3DFF860034078DFF858130870DFF8AE
:100AD000540300214180DFF84C030078012804D141
:100AE000DFF84003012101710EE0DFF83803022135
:100AF000017109E0DFF82C03DFF828130978417051
:100B0000DFF82003002141804FF48041DFF8E40248
:100B100000F0FCF9DFF810130978C0B281420CD064
:100B2000DFF804034088002807D14FF48041B14822
:100B300000F0ECF9DFF8F01248704FF48041AD4856
:100B400000F0E4F9DFF8E0124978C0B2814221D127
:100B5000B5484078B449097888421BD0B2484088EB
:100B6000401CB1494880B0484088652819D3AE4838
:100B70004078AD490870AC4800214180AA4800780F
:100B8000012803D1A848012101710AE0A6480221E9
:100B9000017106E0A448A44909784170A2480021E7
:100BA0004180BDE8F18F80B5C0B2002823D1C9B221
:100BB000002905D0022915D00BD3032916D019E03E
:100BC0004FF480518C4800F0ACF998480021017036
:100BD0005AE04FF48051884800F0A6F9934801216B
:100BE000017051E09148022101704DE08F480321CE
:100BF000017049E048E0C0B2012821D1C9B2002902
:100C000005D0022913D00AD3032914D017E00421F8
:100C10001E4800F086F986480021017034E0042166
:100C20001A4800F081F98248012101702CE08048C7
:100C30000221017028E07E480321017024E023E0B6
:100C4000C0B2022820D1C9B2002905D0022913D090
:100C50000AD3032914D017E008210C4800F061F9E9
:100C60007448002101700FE00821084800F05CF989
:100C700070480121017007E06E480221017003E015
:100C80006C4803210170FFE701BD00000010014026
:100C90000014014080B568480088401C66490880FF
:100CA000654800884FF4FA71884225D25F48007881
:100CB000022803D05D480078032804D14FF4805106
:100CC0004D4800F031F95A480078022803D05848BE
:100CD0000078032803D10421584800F025F955482D
:100CE0000078022803D053480078032878D10821DF
:100CF000524800F019F973E04F480088A0F2F41050
:100D00004FF4FA7180B2884225D248480078022810
:100D100003D046480078032804D14FF48051364868
:100D200000F0FFF842480078022803D040480078DD
:100D3000032803D10421414800F0F3F83D4800782E
:100D4000022803D03B480078032849D108213B48BA
:100D500000F0E7F844E038480088A0F2E8304FF4AB
:100D6000FA7180B2884219D230480078022804D142
:100D70004FF48051204800F0D7F82D480078022821
:100D800003D104212D4800F0CFF82A48007802282A
:100D900026D10821294800F0C7F821E0264800881C
:100DA000A0F2DC504FF4FA7180B2884218D21F488A
:100DB0000078022804D14FF480510F4800F0B1F8B8
:100DC0001B480078022803D104211C4800F0A9F830
:100DD00018480078022803D10821184800F0A1F82B
:100DE00015480088B0F5FA6F02D31348002101803E
:100DF00001BD0000000C0140000801407404002007
:100E0000800400208C04002098040020A40400200A
:100E1000B0040020D4040020E0040020EC040020F2
:100E20001E050020BC040020C80400201A05002074
:100E30001B0500201C0500201205002000100140A9
:100E4000F0B400220026002400250023002791F89A
:100E500003C01CF00F0C624691F803C05FEACC6C33
:100E600001D58B781A430B781B0621D00368002428
:100E700006E0CD78482D02D10125A5400561641C0E
:100E8000082C14D20125A5400E882E40AE42F6D182
:100E9000A5000F2616FA05F7BB4312FA05F52B43FA
:100EA000CD78282DE5D10125A5404561E7E7036010
:100EB0000B884FF48074A34226D34368002420E0BB
:100EC000012514F10806B5400E882E40AE4217D118
:100ED000A5000F2616FA05F7BB4312FA05F52B43BA
:100EE000CD78282D04D1012514F10806B5404561BF
:100EF000CD78482D04D1012514F10806B5400561CF
:100F0000641C082CDCD34360F0BC7047002280686E
:100F100080B2084201D0012200E000221000C0B2DD
:100F2000704789B20161704789B241617047D2B29E
:100F3000002A02D089B2016101E089B241617047A3
:100F400070B40022002400230025194E36683300B7
:100F5000C0F30346350086B2320010F44016B6F5F1
:100F6000401F08D133F07063114C246834F0706472
:100F70000F4D2C600FE0C40205D50324AC40A34301
:100F800053F0706307E0440DE4B2240112FA04F454
:100F9000A34353F07063C9B2002905D0400DC0B21D
:100FA000000112FA00F003430148036070BC70476F
:100FB0000400014080B5DFF8F80702214180DFF826
:100FC000F40702214180DFF8F00702210180DFF8F9
:100FD000EC0702210180022300220721012000F0FA
:100FE00007F8022300220721022000F001F801BDCA
:100FF00030B4C9B241F2BE6404FB01F4072594FB8E
:10100000F5F404F22E74DBB2912505FB03F5C0B2B2
:10101000012812D1DFF89807C9B28180DFF8900764
:10102000D2B2C280DFF88807DBB20381DFF8800725
:10103000C481DFF87C07058214E0C0B2022811D118
:10104000DFF87007C9B28180DFF86807D2B2C280CA
:10105000DFF86007DBB20381DFF85807C481DFF8EF
:101060005407058230BC7047C0B2012815D1DFF8A3
:101070004007C9B24180C9B2022904D1DFF8300764
:101080000021818121E0C9B201291ED1DFF82007AA
:10109000DFF81C17C989818117E0C0B2022814D17A
:1010A000DFF81007C9B24180C9B2022904D1DFF8C4
:1010B00004070021818108E0C9B2012905D1DFF8C8
:1010C000F406DFF8F016C9898181704780B5DFF832
:1010D000F00600880A2807D2DFF8E4060088401CE2
:1010E000DFF8DC1608800BE1DFF8C4064089DFF882
:1010F000C0168989884269D0DFF8B406008A0028C2
:1011000057D0DFF8BC0600880A2858D3DFF8A006BD
:101110004089DFF89C168989884225D2DFF890063D
:10112000408940F22E71884205D2DFF8840640F2F1
:101130002E71418109E0DFF878064089DFF87016EA
:10114000098A0818DFF868164881DFF864064089C4
:10115000DFF85C168989884231D3DFF85406DFF85E
:101160005016898941812AE0DFF84406408940F21F
:101170002F71884204D2DFF838060021418109E04E
:10118000DFF82C064089DFF82816098A401ADFF8B4
:1011900020164881DFF818068089DFF8141649897F
:1011A00088420CD3DFF80806DFF8041689894181EC
:1011B00005E0DFF8FC05DFF8F81589894181DFF8E3
:1011C000F0054189DFF8FC0500F0E3FBDFF8E405FA
:1011D0004089DFF8E0158989884269D0DFF8D405B5
:1011E000008A002857D0DFF8D80500880A2858D38D
:1011F000DFF8C0054089DFF8BC158989884225D20F
:10120000DFF8B005408940F22E71884205D2DFF840
:10121000A40540F22E71418109E0DFF8980540896C
:10122000DFF89015098A0818DFF888154881DFF87B
:1012300084054089DFF87C158989884231D3DFF83D
:101240007405DFF87015898941812AE0DFF86405AB
:10125000408940F22F71884204D2DFF858050021FE
:10126000418109E0DFF84C054089DFF84815098A1B
:10127000401ADFF840154881DFF838058089DFF82B
:101280003415498988420CD3DFF82805DFF8241586
:101290008989418105E0DFF81C05DFF81815898987
:1012A0004181DFF810054189DFF8180500F073FB74
:1012B000DFF80C0500210180DFF8F404C088002865
:1012C00006D100220121DFF80005FFF730FE05E01E
:1012D00001220121DFF8F004FFF729FEDFF8D40432
:1012E000C088002806D100220221DFF8DC04FFF7C5
:1012F0001EFE05E001220221DFF8CC04FFF717FEF5
:1013000001BD80B5DFF8C4040078012815D10321A0
:101310000120FFF748FCDFF8980401214182DFF843
:101320009004408801281FD1DFF88C04022101803D
:1013300002210120FFF798FE16E0DFF874044088D0
:10134000012804D101210120FFF72DFC08E0DFF87E
:1013500060044088022803D100210120FFF723FC0C
:10136000DFF84C0400214182DFF864040078012892
:1013700015D103210220FFF716FCDFF83804012104
:101380004182DFF83004408801281FD1DFF82C04A7
:101390000221018002210220FFF766FE16E0DFF83D
:1013A00014044088012804D101210220FFF7FBFB2F
:1013B00008E0DFF800044088022803D10021022061
:1013C000FFF7F1FBDFF8EC030021418200F0FCFAAB
:1013D000DFF8001400F05AFB08D202210020FFF7CA
:1013E000E2FBDFF8F4030121017017E000F0ECFAF2
:1013F000DFF8E81300F05CFB08D802210020FFF7BB
:10140000D2FBDFF8D4030221017007E003210020A2
:10141000FFF7C9FBDFF8C00300210170DFF8B80354
:101420000078002819D0DFF888034088012807D108
:10143000DFF884030221018002210120FFF714FE5E
:10144000DFF870034088012807D1DFF8700302211C
:10145000018002210220FFF707FE01BD00B587B021
:1014600001A8142100F036FB00210020DFF87023D2
:101470001288521CDFF868331A80DFF86423128860
:10148000322AC0F0AE80002004E080B201A9002220
:101490004254401C80B21428F7D3DFF844030021E3
:1014A0000180C3484088012805D19DF8040050F010
:1014B00001008DF80400DFF82C030078012805D125
:1014C0009DF8040050F002008DF80400C648007832
:1014D000012805D19DF8040050F004008DF80400A7
:1014E000B348408A012805D19DF8050050F001005D
:1014F0008DF80500B8480078C00705D59DF80500AF
:1015000050F002008DF80500B6484079012805D159
:101510009DF8050050F010008DF80500B2484079A4
:10152000012805D19DF8050050F020008DF8050038
:10153000A0484088012805D19DF8060050F0010020
:101540008DF80600A9480078012805D19DF806000D
:1015500050F002008DF80600A5480078012805D15A
:101560009DF8060050F004008DF806009148408A6E
:10157000012805D19DF8070050F001008DF8070003
:1015800095480078C00705D59DF8070050F0020087
:101590008DF8070095484079012805D19DF807008E
:1015A00050F010008DF8070091484079012805D1CE
:1015B0009DF8070050F020008DF8070000208DF8FE
:1015C000080000208DF8090000208DF80A0007218E
:1015D0000120009087480378022289B201A800F018
:1015E0002BFC07B000BD80B57348C088401C724911
:1015F000C88071484088022827D16F480088012898
:1016000023D17848007801280DD16B4880880128C3
:1016100009D102210120FFF727FD6748022101803F
:101620006548012141807048007801280DD1624849
:101630008088022809D102210120FFF715FD5E48AC
:10164000022101805C48012141805B48C088332829
:1016500012D359480021C18057480088012803D17E
:1016600001210120FFF700FD53480088022803D123
:1016700002210120FFF7F8FC5048C088401C4F4968
:10168000C8804E484088022827D14C48008801284D
:1016900023D15648007801280DD148488088012878
:1016A00009D102210220FFF7DFFC4448022101801A
:1016B0004248012141804E48007801280DD13F4821
:1016C0008088022809D102210220FFF7CDFC3B4887
:1016D000022101803948012141803848C0883328DF
:1016E00012D336480021C18034480088012803D134
:1016F00001210220FFF7B8FC30480088022803D1FE
:1017000002210220FFF7B0FC01BD80B5C0B2012864
:1017100025D12948D2B242802748C9B20180264843
:10172000DBB2838024488088022809D120480389BD
:10173000DBB200221E488188C9B20120FFF758FCA5
:101740001D488088012832D119480389DBB2012263
:1017500017488188C9B20120FFF74AFC27E0C0B2D0
:10176000022824D11548D2B242801448C9B201805F
:101770001248DBB2838011488088022809D10D48C5
:101780000389DBB200220B488188C9B20220FFF72F
:101790002FFC0A488088012809D106480389DBB25A
:1017A000012204488188C9B20220FFF721FC01BD53
:1017B0003804002050040020F80400200005002018
:1017C0001405002000040040000C0140BC0400206F
:1017D000C8040020000094411D0500200100D441F0
:1017E0001605002074040020800400208C040020D2
:1017F000980400201E05002010B4028812F08F0209
:1018000002800288CB884C8823431A4302808A884E
:1018100082850A880285454A904202D0444A904215
:1018200001D1097A01860121818210BC704770B410
:10183000002300240022058C4FF6FE7635400584F7
:10184000058C2C0085882A00058B2B004FF68C75A3
:101850002B400D882B434FF6FD752C400D892C43F2
:101860004D882C43314DA84202D0314DA84213D1AE
:101870004FF6F7752C404D892C434FF6FB752C40E5
:101880008D882C4347F6FF652A4047F6FF552A40CE
:101890008D892A43CD892A4382800383C988818622
:1018A000048470BC704770B4002300240022058CAF
:1018B0004FF6EF7635400584058C2C0085882A008C
:1018C000058B2B0048F6FF452B400D8853EA052376
:1018D0004FF6DF752C400D8954EA05144D8854EA03
:1018E0000514124DA84202D0114DA84217D14FF64F
:1018F0007F752C404D8954EA05144FF6BF752C4076
:101900008D8854EA051447F6FF352A4047F2FF75E3
:101910002A408D8952EA8502CD8952EA8502828069
:101920000383C9880187048470BC7047002C014080
:1019300000340140C9B2002904D0018851F00101EE
:10194000018004E0018840F2FE32114001807047BE
:10195000C9B2002904D0018851F08001018004E05F
:10196000018840F27F321140018070470022038BD2
:101970001A004FF6F7731A400A4302837047002299
:10198000038B1A004FF2FF731A4052EA01220283BE
:101990007047818670470187704710B450F8041B68
:1019A00081B102681218001D50F8043BDC0744BFE7
:1019B000A9F10104E31852F8044B43F8044B091F42
:1019C000F9D1EBE710BC704780B5022000F0C5FEEE
:1019D00080B200F0F1FE00F0FDFE5FF06632264BB3
:1019E00000F020FF0022254B00F01CFF00225FF0DA
:1019F000804300F0E9FF01F00BF902BD80B500F073
:101A000091FC00F013F800F01FF800F083FAFAE7F9
:101A10001B480068401C1A4908601A4801210170DF
:101A200019480088401C18490880704780B5FFF7A6
:101A3000C1FA00F063F801F033F901230222012119
:101A40000120FFF762FE01BD80B50E480078012835
:101A500010D10C4800210170FEF748FBFFF71AF97E
:101A6000FFF734FBFFF74DFCFFF7BDFD01F0A4FAD3
:101A7000FFF7F4FC01BD000066664A3F00003140FC
:101A8000080500201F050020160500204FF0807C6F
:101A90001CEB400F94BF1CEB410F05E040EA010C2A
:101AA0005FEA4C0C01D28842704718BF81427047F0
:101AB0004FF0807C1CEB400F94BF1CEB410F05E006
:101AC00040EA010C5FEA4C0C01D28142704718BF1A
:101AD00088427047002201F0F1BA50F8041B61B14E
:101AE00050F8042BD30744BFA9F101039A1800232F
:101AF00042F8043B091FFAD1EFE770470020DFF8F6
:101B00009017080032214181DFF888170160002119
:101B1000C180818070470FB5DFF87407C188491C08
:101B2000428991FBF2F302FB13118288914210D09B
:101B3000C188491C428991FBF2F302FB1311C18059
:101B4000C1880E22006802FB010000A90E2201F0EC
:101B5000CDFA0FBD0FB585B09DF817009DF8161092
:101B600011F00F0150EA01209DF8151050EA0130E4
:101B70009DF8141011F0030150EAC1409DF81810AF
:101B800050EA4150019004208DF8080000208DF8A3
:101B900009009DF819008DF80A009DF80A200DF142
:101BA0001A010DF10B0001F0D9FA00A9DFF8E806DF
:101BB00001F020FC09B000BD10B50022002304781C
:101BC00022008478230092B289B28A420FD1DBB21C
:101BD000012B02D0042B07D009E089B2801C00F051
:101BE000BEF900F02FFA02E000F04CFAFFE710BD5A
:101BF000F8B50021002200250024002306783500D6
:101C00004678877856EA07263400C6783100067988
:101C10003300467932000678012E0FD1DFF87C06BA
:101C20000088A4B284421BD0DFF870060480DBB2C7
:101C3000D2B2C9B20120FFF768FD11E00078022896
:101C40000ED1DFF85C060088A4B2844208D0DFF829
:101C500050060480DBB2D2B2C9B20220FFF755FDB4
:101C6000F1BD80B5DBB2012B02D0032B04D006E01E
:101C700089B2FFF7A1FF02E0FFF7BAFFFFE701BD5E
:101C80000FB400B583B00598C00C10F003008DF8B8
:101C900000000598000B10F07F008DF801000598FA
:101CA000000A10F00F008DF8020005988DF803006F
:101CB0000598400D8DF804009DF80400DFF8E41548
:101CC0000978884240F0B5809DF80000002818D1BE
:101CD0009DF81A200DF11B01DFF8CC0501F03EFA4A
:101CE0009DF81A00DFF8C41508809DF802309DF8B1
:101CF0000320DFF8B8050188DFF8AC05FFF7B1FF76
:101D000097E09DF80000012816D19DF81A200DF1EA
:101D10001B01DFF8940501F021FADFF89405012199
:101D200001709DF80100DFF88C1508709DF81A000D
:101D3000DFF8841508807CE09DF80000022832D18D
:101D4000DFF86C050078012873D19DF80100DFF8F9
:101D500064150978491C88426BD1DFF85C0500885E
:101D60009DF81A100818B0F5967F62DC9DF81A20CD
:101D70000DF11B01DFF840050088DFF82C35C01895
:101D800001F0ECF9DFF82C050078401CDFF8241591
:101D90000870DFF8240500889DF81A100818DFF88D
:101DA0001815088045E09DF80000032841D1DFF8B0
:101DB0000005007801283CD19DF80100DFF8F414FB
:101DC0000978491C884234D1DFF8EC0400889DF87A
:101DD0001A100818B0F5967F2BDC9DF81A200DF12B
:101DE0001B01DFF8D4040088DFF8BC34C01801F010
:101DF000B5F9DFF8C40400889DF81A100818DFF858
:101E0000AC1408809DF802309DF80320DFF89C0494
:101E10000188DFF89404FFF724FFDFF89404002121
:101E20000170DFF8900400210170DFF88C040021BC
:101E3000018007BC5DF814FB7FB504000D00089815
:101E400000268DF802208DF803308DF80400ADB225
:101E5000092D13D200208DF8000000208DF801001C
:101E60008DF805509DF8052021000DF1060001F0C8
:101E700075F900A80FC8FFF74EFE4AE001208DF863
:101E8000000000208DF8010008208DF805009DF865
:101E9000052021000DF1060001F060F900A80FC82F
:101EA000FFF739FE082617E002208DF800009DF8A4
:101EB0000100401C8DF8010008208DF805009DF8F8
:101EC0000520B6B231190DF1060001F047F900A85E
:101ED0000FC8FFF720FE0836B6B216F10800ADB203
:101EE000A842E1DB03208DF800009DF80100401CB2
:101EF0008DF80100A81B8DF805009DF80520B6B2ED
:101F000031190DF1060001F029F900A80FC8FFF7FB
:101F100002FE7FBD30B585B0DD4C002100250020DC
:101F2000A288E3889A4218D0A588ADB2681C61895E
:101F300090FBF1F201FB1205ADB20E20216800FB0F
:101F4000051100A80E2201F0D1F800A80FC8FFF774
:101F500001FEC0B2042800D0A58005B030BD10B489
:101F6000002102788378C47853EA04239BB2032BC0
:101F700066D2D2498B80D24901220A8000215AE0E0
:101F800089B20A2202FB0102127989B20A2303FBF9
:101F900001035B7952EA032289B20A23C74C03FB8F
:101FA0000143DA8089B20A2202FB0102927989B2E6
:101FB0000A2303FB0103DB7952EA032289B20A23D5
:101FC000BE4C03FB01431A8189B20A2202FB0102C3
:101FD000127A89B20A2303FB01035B7A52EA0322D5
:101FE00089B20A23B54C03FB01435A8189B20A2204
:101FF00002FB0102927A89B20A2303FB0103DB7A16
:1020000052EA032289B20A23AC4C03FB01439A81B2
:1020100089B20A2202FB0102127B89B20A2303FB66
:1020200001035B7B52EA032289B20A23A34C03FB20
:102030000143DA81491CA14A928889B291429FD317
:1020400010BC704700B585B001A800210022002314
:102050000EC00C3800210320010008008DF8040098
:1020600089B2080A8DF8050002208DF806000120CB
:1020700000908C480378012289B201A8FFF7DCFEAA
:1020800005B000BD00B58FB001A83421FFF722FDD7
:10209000002100208B4A92884FF6FF739A4200F08D
:1020A000C480884800788DF80700864840788DF80D
:1020B0000800844880788DF809008248C0788DF83F
:1020C0000A00784800788DF80B0000208DF80C008D
:1020D0007C4880888DF80D007A48808880B2000A9C
:1020E0008DF80E00002082E080B20A2101AA01FBD7
:1020F000002180B20A22734B02FB0032D288CA72DE
:1021000080B20A216F4A01FB0021C98889B2090AFD
:1021100080B20A2201AB02FB0032117380B20A21A5
:1021200001AA01FB002180B20A22664B02FB0032A9
:1021300012894A7380B20A21624A01FB002109898F
:1021400089B2090A80B20A2201AB02FB0032917304
:1021500080B20A2101AA01FB002180B20A22594B58
:1021600002FB00325289CA7380B20A21554A01FB30
:102170000021498989B2090A80B20A2201AB02FB17
:102180000032117480B20A2101AA01FB002180B241
:102190000A224C4B02FB003292894A7480B20A2117
:1021A000484A01FB0021898989B2090A80B20A22C2
:1021B00001AB02FB0032917480B20A2101AA01FB3B
:1021C000002180B20A223F4B02FB0032D289CA743E
:1021D00080B20A213B4A01FB0021C98989B2090A60
:1021E00080B20A2201AB02FB00321175401C354956
:1021F000898800297FF478AF324880880A214843D3
:1022000010F10B018DF8041000208DF8050004205A
:102210008DF8060001200090224803780122C9B2FF
:1022200089B201A8FFF708FE2FE0264800788DF854
:102230000700244840788DF80800224880788DF8FF
:1022400009002048C0788DF80A00164800788DF8FB
:102250000B0000208DF80C0000208DF80D000020F0
:102260008DF80E000B218DF8041000208DF805006C
:1022700004208DF80600012000900A48037801220E
:10228000C9B289B201A8FFF7D7FD0FB000BD0000A9
:1022900068040020180000200064004014000020A2
:1022A000160000201E050020D40200200C0500208E
:1022B00018050020190500200E0500201C04002030
:1022C000100500200004002040B2002809D540B2CB
:1022D00010F00F00DFF8B0248018090100F8041C8A
:1022E00004E040B2DFF8A42409018154704780B5AE
:1022F000B0F1807F01D3012013E00002000A401EEC
:10230000DFF88C1408600F215FF0FF30FFF7DCFF6F
:10231000DFF8800400210160DFF87C040721016000
:10232000002002BD00B585B001F0B4F901215FF0D5
:10233000D05001F0D1FA01217D2001F0BDFA00F06A
:102340005EF900F0C5F900F015F800F006F900F0AC
:1023500070F900A801F050FA00984FF47A71B0FBC0
:10236000F1F0FFF7C4FF02215FF0FF30FFF7ACFF91
:1023700005B000BD80B50C20ADF8000010208DF830
:10238000030003208DF8020000A9DFF81004FEF717
:1023900057FD4FF48050ADF8000010208DF8030079
:1023A00003208DF8020000A9DFF8F403FEF748FDD2
:1023B0003320ADF8000004208DF8030003208DF8D1
:1023C000020000A9DFF8D403FEF73AFD4FF44060A5
:1023D000ADF8000004208DF8030003208DF8020002
:1023E00000A9DFF8C003FEF72BFD4FF44040ADF825
:1023F000000048208DF8030003208DF8020000A99A
:10240000DFF8A003FEF71CFD3020ADF8000010201F
:102410008DF8030003208DF8020000A9E048FEF7C4
:102420000FFD0320ADF8000010208DF803000320FD
:102430008DF8020000A9DB48FEF702FDC020ADF8D0
:10244000000004208DF8030003208DF8020000A98D
:10245000D448FEF7F5FC4FF48050ADF8000004209E
:102460008DF8030003208DF8020000A9CB48FEF789
:10247000E7FC4FF47060ADF8000004208DF8030015
:1024800003208DF8020000A9C548FEF7D9FC4FF4DF
:102490000050ADF8000004208DF8030003208DF8F3
:1024A000020000A9BF48FEF7CBFC2020ADF80000D9
:1024B00004208DF8030003208DF8020000A9B9481C
:1024C000FEF7BEFC4FF44060ADF8000004208DF82C
:1024D000030003208DF8020000A9B048FEF7B0FC0D
:1024E0000420ADF8000004208DF8030003208DF8CF
:1024F000020000A9AC48FEF7A3FC4FF47070ADF8E1
:10250000000004208DF8030003208DF8020000A9CC
:10251000A248FEF795FC4FF48070ADF8000048200B
:102520008DF8030003208DF8020000A99D48FEF7F6
:1025300087FC4FF40070ADF8000018208DF8030000
:1025400003208DF8020000A99648FEF779FC0121CE
:102550005FF4EA10FEF7F4FC01BD00B587B09348C4
:1025600000F004FE00A800F014FF00208DF8060023
:1025700001208DF8070000208DF8080000208DF85C
:10258000090000208DF80A0001208DF80B000020C2
:102590008DF8020000208DF803000C208DF8040057
:1025A00001208DF805001220ADF8000000A97F4839
:1025B00000F0F6FD00208DF8160000208DF81700C1
:1025C00001208DF818000020ADF80C000020ADF8B7
:1025D0000E000020ADF810000020ADF81200002021
:1025E000ADF8140001208DF8190003A800F060FE7A
:1025F000012202216D4800F0F1FE07B000BD80B558
:1026000000215FF0006001F0E1F94FF4A06001F0FB
:10261000A5F914208DF8000000208DF8010001209C
:102620008DF8020001208DF8030000A801F09BF94D
:1026300001BD00B589B00121022001F04DF9C02093
:10264000ADF8000018208DF8030003208DF802007B
:1026500000A95348FEF7F4FB42F22730ADF808001A
:102660000020ADF804000020ADF80A000020ADF80D
:10267000060001A94E48FFF7BFF87020ADF8100022
:102680000120ADF812000220ADF8180004A9484856
:10269000FFF7CDF808214648FFF768F904A9444838
:1026A000FFF701F908214248FFF769F90121404885
:1026B000FFF74EF901213E48FFF73CF900213C4865
:1026C000FFF767F900213A48FFF765F909B000BD47
:1026D00000B587B001214FF4007001F0EDF84FF420
:1026E000004001F07FF80420ADF8000000208DF8D4
:1026F000030000A92A48FEF7A3FB2E4801F07AF94F
:102700000020019000208DF8080000208DF80900BD
:102710005FF4602003900020049001208DF81400E5
:1027200001A9244801F094F9012001F054FA012193
:10273000204801F0B3F91F4801F0BDF91D4801F030
:10274000BFF90028FAD11B4801F0C4F9194801F07B
:10275000C6F90028FAD107B000BD80B507230122D1
:102760000100C9B2134801F0D1F90121114801F06B
:10277000C0F902210F4801F04BFA0028F9D00D48AA
:1027800001F026FA02BD000018ED00E000E400E0D0
:1027900014E000E018E000E010E000E0001001406C
:1027A00000080140000C014000140140006400409A
:1027B000000400400024014000280AD0B0FA80F153
:1027C0008840D1F19D01C905020672F1004241EB3A
:1027D000102070475FF0FF0C1CEAD05114BF614518
:1027E00006E0C110400721F0E04101F1605170475F
:1027F00079B900F0004100020AD0B0FA80FC00FA7A
:102800000CF001F16051A1EB0C5101EBD02140051E
:10281000704741020CBF40F4E0016FF0000100205E
:1028200070470000B0B581EA030C0CF0004C40F298
:10283000FF7515EA11541DBF15EA1357AC42AF429C
:1028400039E0E41923EA455343F48013C90241F007
:10285000004141EA505EC7021100A7FB02020028B6
:102860004FF00000EEFB01204FF00001E3FB0721D9
:1028700018BF42F00102401800214941E3FB0E015C
:10288000A4F580640F0302D252004041494154F143
:1028900001046CDD470872F1004250F1000051EB79
:1028A0000451A1F580115CBF41EA0C01B0BD4CEAB6
:1028B00005510020B0BD05EA1357AC4214BFAF422A
:1028C00041E050EA410E1CBF52EA430E02E061466D
:1028D0000020B0BD24423C441BD15FEA070EF6D075
:1028E000090302BF01460020AEF1140EB1FA81F7D0
:1028F000AEEB070401FA07FE0C37C7F1200100FA1E
:1029000007F7C8404EEA000E23EA455343F480130C
:10291000A2E733F00043B3FA83F704BFB2FA82FEB2
:1029200077440B3FE41BB7F1200E2FBF02FA0EF3E2
:10293000BB40C7F1200E22FA0EFE38BF43EA0E0359
:10294000BA40641C82E750EA410E14BF52EA430EBB
:102950006FF000014FF4001717EB430F8ABF1946C1
:1029600017EB410FB5E74CEA05510020B0BDD4F19B
:102970000104B4F120070FDAC4F12007520828BF80
:1029800042F0010210FA07F501FA07F7E1BF2A4306
:10299000E0403843E1400FE0352C98DCC7F12004DB
:1029A00052EA400220FA07F218BF42F0010231FA5F
:1029B00007F0A1400A43002172F1004250F10000EB
:1029C00051EB0C01B0BD0000F0B540F2FF7581EA9B
:1029D000030C0CF0004C15EA11541DBF15EA1357F7
:1029E000AC42AF42E5E0BC41C1F31301C3F31303B2
:1029F000801A994143F4801304D2641E4000494177
:102A000080185941C90241EA5051B1FBF3F603FB6A
:102A10001611A2FB0675D7EBC020A94102D2761E83
:102A200080185941C90241EA5051B1FBF3FE03FB42
:102A30001E11A2FB0E75D7EBC020A94103D2AEF147
:102A4000010E80185941890241EA9051760546EA03
:102A50008E2EB1FBF3F603FB1611A2FB0675D7EB26
:102A60008020A94102D2761E80185941C90241EA4C
:102A700050514EEA060EB1FBF3F603FB1611A2FB12
:102A80000675D7EBC020A94102D2761E80185941A5
:102A9000C90241EA5051B1FBF3F703FB1711A2FB46
:102AA0000735D3EBC020A94167F100070CBF0042F6
:102AB00047F0010766F3D5274FEA1E31B80814F531
:102AC000806412DDBD0775F1004250EB0E5051EBF2
:102AD000045111F5801F5CBF41EA0C01F0BD4CF0C0
:102AE0007F6141F0E0410020F0BDBD076D0840EA84
:102AF0000E5041F48011D4F10104B4F120060ADA39
:102B0000C4F120060200E04001FA06F3E140184358
:102B1000B24015430EE0342C13DCC6F1200445EA24
:102B200040056D0820FA06F2154321FA06F0A1408F
:102B30000D43002175F1004250F1000051EB0C01F2
:102B4000F0BD00205FEA0C01F0BDCFB992185B41E7
:102B5000B3FA83F704BFB2FA82F6BF190B3FB7F19D
:102B600020062FBF02FA06F3BB40C7F1200622FA67
:102B700006F638BF3343BA401CB1E419641E33E78C
:102B80007F4231F00041B1FA81F404BFB0FA80F61F
:102B9000A4190B3CB4F120062FBF00FA06F1A140A6
:102BA000C4F1200620FA06F638BF3143A0403C1B92
:102BB0001AE7AC421ABF05EA1357AF4212E050EAD7
:102BC00041061CBF52EA4306BFE750EA41073046C0
:102BD00061461CBF41EA0551F0BD52EA430C08BFF3
:102BE000C143F0BD00204FF4001616EB410F98BF13
:102BF00016EB430F08BF16EB410F24BFC14305E09E
:102C000016EB430F0CBF61464CEA0551F0BD0000C6
:102C10004FEAF17CBCF1E04C2CBFBCF5001F11E089
:102C20005FEA4C0C34BFBCF17F5F2EE05FEA9C0C86
:102C30004FEA0C1C4FEA3C0CC10071F100414CEB17
:102C400050707047C90241EA5051C00218BF41F0AC
:102C5000010141F000414FEA6C50C0F10900212808
:102C600010D240EACC7CCCF1200C11FA0CF070F1BF
:102C70000040CCF1200C21FA0CF00CF0004C40EBA1
:102C80000C0070474FEACC707047490011F5001FE7
:102C900004D84FEACC10FF30C0057047C817704702
:102CA00010B500200024DFF8E01301220A70DFF8DD
:102CB000D81300224A70DFF8D01300228A70DFF8A0
:102CC000C8130122CA70DFF8C0134FF6FF728A8062
:102CD000DFF8B81301220A70DFF8B01300224A703F
:102CE000DFF8A81300228A70DFF8A0130122CA704F
:102CF000DFF898134FF6FF728A80DFF89413098883
:102D0000080080B2002800F081804FF6FF7180B289
:102D100088427BD0DFF870138880DFF86C038088EE
:102D200003286FD20024DFF860038088A4B28442B5
:102D30006CD2A4B20A20DFF85C1300FB04100088F8
:102D400080B200280BD04FF6FF7180B2884206D0C7
:102D5000A4B20A21DFF8302301FB0421C880A4B209
:102D60000A20DFF8341300FB0410008880B200282A
:102D70000AD04FF6FF7180B2884205D0A4B20A2172
:102D8000C14A01FB04210881A4B20A20C34900FB07
:102D90000410008880B200280AD04FF6FF7180B27C
:102DA000884205D0A4B20A21B74A01FB0421488118
:102DB000A4B20A20BA4900FB0410008880B200289F
:102DC0000AD04FF6FF7180B2884205D0A4B20A2122
:102DD000AD4A01FB04218881A4B20A20B14900FB5D
:102DE0000410008880B200280AD04FF6FF7180B22C
:102DF000884205D0A4B20A21A34A01FB0421C8815C
:102E0000641C90E7A0484FF6FF7181809E4880883F
:102E10004FF6FF7188427AD0002413E0A248C088A0
:102E2000012802D1A048002181829F480389DBB29A
:102E30009D48C288D2B29C488188C9B20220FEF760
:102E4000D7F8641C90488088A4B2844280F09580B2
:102E5000A4B20A208C4900FB0410C088012802D0CB
:102E6000022834D0EDE7A4B20A20874900FB041001
:102E700080898E49C880A4B20A20834900FB0410CF
:102E8000C0898A490881A4B20A207F4900FB041046
:102E90004089864988808548C088002803D18348B6
:102EA0000121818206E08148C088012802D17F4843
:102EB000002181827D480389DBB27C48C288D2B27E
:102EC0007A488188C9B20120FEF792F8B9E7A4B226
:102ED0000A206D4900FB041080897349C880A4B2A0
:102EE0000A20694900FB0410C0896F490881A4B217
:102EF0000A20654900FB041040896B4988806A48B4
:102F0000C08800288AD16848012181828DE76748FE
:102F10000121018065480021C180644804210181AC
:102F20006248062181806148012181825F480389CE
:102F3000DBB25E48C288D2B25C488188C9B2012047
:102F4000FEF756F858480121018057480021C180FA
:102F500055480421018154480621818052480121AD
:102F6000818251480389DBB24F48C288D2B24E48B1
:102F70008188C9B20220FEF73BF810BD70B504008D
:102F80000D00002600F050FE342000F0BAFE40484C
:102F900000F05EFE04280CD1002606E0B6B234F83C
:102FA00016103B4800F086FE761CB6B2ADB2AE42BB
:102FB000F4D300F044FE70BD00B58FB000200021B6
:102FC0003B4A1288002A5CD03948002101802F48F2
:102FD0008088ADF800002D488088032851D2002059
:102FE0003CE080B20A2100AA01FB002180B20A2243
:102FF000264B02FB0032D2884A8080B20A2100AA06
:1030000001FB002180B20A22204B02FB0032128910
:103010008A8080B20A2100AA01FB002180B20A2224
:103020001A4B02FB00325289CA8080B20A2100AAE0
:1030300001FB002180B20A22144B02FB003292896C
:103040000A8180B20A2100AA01FB002180B20A2273
:103050000E4B02FB0032D2894A81401C0B49898801
:1030600080B28842BDD34AF6AA21ADF8001080B2E2
:1030700005214843411C89B200A8FFF77FFFFFF7F5
:103080000FFE0FB000BD0000000400201C04002053
:103090000020030802200308042003080620030878
:1030A000082003080A2003085004002038040020E8
:1030B0001005002062F30F2262F31F4200B51300D7
:1030C00096469446103928BFA0E80C50FAD85FEA1B
:1030D000417C28BF0CC048BF40F8042BC90728BF5B
:1030E00020F8022B48BF00F8012B00BD4AB38B0724
:1030F00007D0521E11F8013B00F8013B21D08B078D
:10310000F7D183071ED1103A07D330B4B1E8381095
:10311000103AA0E83810F9D230BC530724BFB1E808
:103120000810A0E8081044BF51F8043B40F8043BE5
:10313000D20724BF31F8022B20F8022B44BF0B78B2
:1031400003707047083A07D3B1E80810083A40F80E
:10315000043B40F804CBF7D25307E4E710B5040072
:103160002000FFF7C3FF200010BD000080B5944988
:1031700088420AD101215FF0007000F0CDFB0021F0
:103180005FF0007000F0C8FB09E001215FF0806093
:1031900000F0C2FB00215FF0806000F0BDFB01BDCC
:1031A00010B400220023046834F0020404600468B0
:1031B00054F00104046000E05B1C4268D20703D4B1
:1031C0004FF6FF729342F7D14268D20701D4002232
:1031D0006AE08A79012A04D1026852F08002026012
:1031E00003E0026832F080020260CA79012A04D149
:1031F000026852F04002026003E0026832F04002CE
:1032000002600A7A012A04D1026852F020020260A8
:1032100003E0026832F0200202604A7A012A04D1F7
:10322000026852F01002026003E0026832F01002FD
:1032300002608A7A012A04D1026852F00802026010
:1032400003E0026832F008020260CA7A012A04D15F
:10325000026852F00402026003E0026832F00402E5
:1032600002608A78CB781B0653EA82720B7952EAA5
:1032700003424B7952EA03520988491E1143C16146
:103280000168490849000160002300E05B1C4168B7
:10329000C90703D54FF6FF718B42F7D14068C007CD
:1032A00001D5002200E001221000C0B210BC70471E
:1032B00010B400210122837A9A401100414A126819
:1032C00052F001023F4B1A603F4A12688A433E4B5C
:1032D0001A60027B002A15D13C4A12688A433B4B94
:1032E0001A60C288438853EA0242837A384C44F811
:1032F0003320827A364B13EBC2028388048854EA67
:1033000003435360027B012A15D1304A12680A43F5
:103310002E4B1A600288438853EA0242837A2C4C6F
:1033200044F83320827A2A4B13EBC2028388C48884
:1033300054EA03435360C27A002A05D1254A126831
:103340008A43244B1A6004E0224A12680A43214B44
:103350001A600289002A04D11F4A12688A431E4B50
:103360001A600289012A04D11B4A12680A431A4BC7
:103370001A60407B012804D11348006808431249B1
:10338000086010480068400840000E49086010BC02
:103390007047002181710021C1710021017200215B
:1033A0004172002181720021C172002181700021CF
:1033B000C170032101710221417101210180704717
:1033C00000640040006600401C6600400C6600403F
:1033D000406600400466004014660040D2B2002AF5
:1033E00003D042691143416103E0426932EA0101BD
:1033F0004161704730B4002283685B0101D500222F
:103400000AE08268120101D5012205E08268D2003B
:1034100001D5022200E00422D2B2042A75D0D2B231
:1034200010EB0213D3F8803113F00103D2B210EB8A
:103430000214C4F880310B7A002B0FD1D2B210EBFA
:103440000213D3F880310C684D7A55EA4454234373
:10345000D2B210EB0214C4F8803110E0D2B210EBFB
:103460000213D3F880314C680D7A55EAC4044D7AC2
:103470002C432343D2B210EB0214C4F880318B7A70
:1034800013F00F038B72D2B210EB0213D3F8843116
:103490001B091B01D2B210EB0214C4F88431D2B262
:1034A00010EB0213D3F884318C7A2343D2B210EBA1
:1034B0000214C4F884318B7B4C7B240454EA0363EC
:1034C0000C7B53EA0423CC7A2343D2B210EB0214D0
:1034D000C4F888318B7C4C7C240454EA03630C7C54
:1034E00053EA0423C97B1943D2B210EB0213C3F889
:1034F0008C11D2B210EB0211D1F8801151F0010100
:10350000D2B210EB0210C0F880111000C0B230BC73
:103510007047C9B2002902D12021C16001E02021F9
:103520000161704780B5C9B210EB0113D3F8B03117
:1035300013F004031372137A002B07D1C9B210EBF6
:103540000113D3F8B0315B0D136006E0C9B210EB84
:103550000113D3F8B031DB085360C9B210EB01138B
:10356000D3F8B03113F002035372C9B210EB011358
:10357000D3F8B43113F00F039372C9B210EB0113F7
:10358000D3F8B4311B0AD374C9B210EB0113D3F8CA
:10359000B831D372C9B210EB0113D3F8B8311B0A9A
:1035A0001373C9B210EB0113D3F8B8311B0C53736A
:1035B000C9B210EB0113D3F8B8311B0E9373C9B223
:1035C00010EB0113D3F8BC31D373C9B210EB011364
:1035D000D3F8BC311B0A1374C9B210EB0113D3F832
:1035E000BC311B0C5374C9B210EB0113D3F8BC31BE
:1035F0001B0E9374C9B2FFF78CFF01BD042926D0BE
:10360000052919D006291AD007291CD0082921D04C
:10361000202922D0402923D0B1F5807F23D0B1F5D5
:10362000007F25D0B1F5806F27D0B1F5803F29D03C
:10363000B1F5003F29D02BE00121816028E04FF453
:103640008071816024E05FF48031816020E0082196
:10365000C1601DE01021C1601AE00821016117E07E
:103660001021016114E081694908490081610FE07E
:10367000816931F0020181610AE0816931F0040160
:10368000816105E00821416002E010214160FFE70F
:103690007047000080B54D48006850F001004B496C
:1036A00008604B4800684B49084049490860474852
:1036B000006849490840454908604448006830F4BA
:1036C0008020424908604248006830F4FE004049CA
:1036D000086042485FF41F01016000F001F801BD7D
:1036E00080B500F001F801BD82B0002001900020FB
:1036F00000903648006850F4803034490860334800
:10370000006810F4003000900198401C019000986F
:10371000002803D10198B0F5A06FF0D12B480068C4
:10372000800302D50120009001E000200090009865
:10373000012849D12A48006850F010002849086043
:1037400027480068800880002549086024480068F0
:1037500050F00200224908601D481D4909680160B7
:103760001B481B49096801601948006850F48060D3
:10377000174908601648006830F47C101449086046
:103780001348006850F4E810114908600F480068B9
:1037900050F080700D4908600C4800688001FBD52E
:1037A0000B480068800880000949086008480068E4
:1037B00050F00200064908600548006810F00C004F
:1037C0000828F9D102B07047FEE70000001002405F
:1037D000041002400000FFF8FFFFF6FE0810024050
:1037E000002002400021544A1268110031F4404187
:1037F000014351480160704730B40022002100238A
:1038000000244D4D2D6815F00C052A00002A04D027
:10381000042A05D0082A06D021E04849016020E0AA
:10382000464901601DE04449096811F47011424A9B
:10383000126812F48033890C891C002B03D1404A92
:10384000514301600AE03C4A1268920303D53C4AA6
:103850005143016002E0394A5143016001E03749B8
:1038600001603549096811F0F00212093549545CCC
:103870000168E14041603049096811F4E062120AD0
:103880003049545C4168E14081602B49096811F47A
:103890006052D20A2B49545C4168E140C16026491C
:1038A000096811F44042920B2749545CC168B1FB8E
:1038B000F4F1016130BC7047C9B2002905D0234939
:1038C000096808432149086005E02049096831EA90
:1038D00000001E4908607047C9B2002905D01C4984
:1038E000096808431A49086005E01949096831EA7E
:1038F0000000174908607047C9B2002905D0154972
:10390000096808431349086005E01249096831EA6B
:103910000000104908607047C9B2002905D00E495F
:10392000096808430C49086005E00B49096831EA59
:1039300000000949086070470410024000127A0034
:1039400000093D0000000020100000201810024077
:103950001C1002400C100240101002401E49084387
:103960001E490860704710B4002100220F23C4785C
:10397000002C1ED01949096811F4E061D1F5E0610D
:10398000090AD1F10402CB404178914082781A4073
:10399000114309010278124BD15401784911114A9F
:1039A0000123007810F01F0013FA00F042F8210004
:1039B0000AE0017849110C4A0123007810F01F0039
:1039C00013FA00F042F8210010BC7047074A11407A
:1039D00008430749086070470000FA050CED00E055
:1039E00000E400E000E100E080E100E080FFFF1F74
:1039F00008ED00E080B5DFF8001288420AD101210D
:103A00004FF40070FFF778FF00214FF40070FFF7CC
:103A100073FF1CE0DFF8E41188420AD101214FF462
:103A20008060FFF769FF00214FF48060FFF764FFBB
:103A30000DE0DFF8CC11884209D101214FF400409C
:103A4000FFF75AFF00214FF40040FFF755FF01BD7B
:103A500030B40023002244682300DFF8A84123404B
:103A60000C680D7954EA0524234343608368DFF82A
:103A700098412340CC688D682C434D7954EA450425
:103A800023438360C36A33F47003097C491E0A43ED
:103A9000D2B253EA0253C36230BC7047C9B20029A4
:103AA00004D0816851F00101816003E08168490818
:103AB000490081607047816851F00801816070475A
:103AC00000218068000701D5012100E000210800E5
:103AD000C0B27047816851F00401816070470021D5
:103AE0008068400701D5012100E000210800C0B234
:103AF0007047C9B2002904D0816851F4A0018160E7
:103B000003E0816831F4A00181607047F0B40024C3
:103B10000025C9B20A2911D3C4680725B1F10A06E4
:103B200003277E43B540AC43DBB2B1F10A0503265F
:103B3000754313FA05F52C43C4600EE004690725AC
:103B4000032606FB01F6B540AC43DBB2032505FBBB
:103B500001F513FA05F52C430461D2B2072A10D2FD
:103B6000446B1F23551E0526754313FA05F5AC4318
:103B7000C9B2521E05235A4311FA02F52C4344637D
:103B800024E0D2B20D2A10D2046B1F23D51F0526C4
:103B9000754313FA05F5AC43C9B2D21F05235A4346
:103BA00011FA02F52C43046310E0C46A1F23B2F13A
:103BB0000D050526754313FA05F5AC43C9B20D3A58
:103BC00005235A4311FA02F52C43C462F0BC704736
:103BD000C06C80B27047C0B2002806D00B480068A5
:103BE00050F400000949086005E00848006830F416
:103BF0000000064908607047002401400028014089
:103C0000003C0140FFFEF0FFFDF7F1FF08240140FA
:103C100000220068C0B2084201D0012200E0002268
:103C20001000C0B270470000DFF80C01DFF80C1183
:103C30000160DFF80401DFF8081101607047DFF868
:103C40000401006850F08000DFF8F8100860704749
:103C500038B50400042540F6FF7000F079F805003F
:103C6000EDB2042D23D1DFF8DC00006850F0020033
:103C7000DFF8D0100860DFF8D0000460DFF8C4007F
:103C8000006850F04000DFF8BC10086040F6FF709C
:103C900000F05EF80500EDB2052D08D0DFF8A400B5
:103CA000006841F6FD710840DFF8981008602800B0
:103CB000C0B232BD70B504000D0004260F2000F024
:103CC00047F80600F6B2042E18D1DFF87800006835
:103CD00050F00100DFF86C10086025800F2000F024
:103CE00037F80600F6B2052E08D0DFF85800006855
:103CF00041F6FE710840DFF84C1008603000C0B299
:103D000070BD124980B20860704704200F490968ED
:103D1000C90701D501200CE00C480068400701D517
:103D2000022006E009480068C00601D5032000E033
:103D30000420C0B270470000042002402301674500
:103D4000AB89EFCD10200240142002400C2002402D
:103D500038B504000425FFF7D8FF050005E000F0A2
:103D60000FF8FFF7D2FF0500641EEDB2012D01D15F
:103D7000002CF4D1002C00D105252800C0B232BDA2
:103D800081B000200090FF20009002E00098401ECB
:103D9000009000980028F9D101B070477047FEE705
:103DA000FEE7FEE7FEE770477047704780B5FDF716
:103DB0002FFE01BD00B587B001AA00210848FFF71A
:103DC000B1FB02210648FFF719FC01A984B068463F
:103DD0001422FFF798F90FBCFDF752FF07B000BDA2
:103DE0000064004010B5084979441C31074C7C44FC
:103DF0001A34A14206D0081D0A68511888470146A6
:103E0000A142F8D110BD00BF08000000280000004A
:103E1000CBDCFFFF080500001800002000000000B8
:103E20007BDBFFFF180000002C01000000000020D9
:103E30000000000000F009F8002801D0FFF7D2FFD1
:103E40000020FDF7DBFD00F002F80120704780B58F
:103E500000F002B800BF00000746384600F002F844
:103E6000FBE7000080B5C046C046024A110018209A
:103E7000ABBEFBE726000200C046C046C046C046B7
:103E8000FFF7D8FFFFF78ABFFFF789BFFFF788BFAB
:103E9000FFF787BFFFF786BFFFF785BFFFF784BF38
:103EA000FFF783BFFFF782BFFFF7FEBFFFF7FEBF3D
:103EB000FFF7FEBFFFF7FEBFFFF7FEBFFFF7FEBF36
:103EC000FFF7FEBFFFF7FEBFFFF7FEBFFFF7FEBF26
:103ED000FFF7FEBFFFF7FEBFFFF7FEBFFFF7FEBF16
:103EE000FFF7FEBFFFF7FEBFFFF7FEBFFFF7FEBF06
:103EF000FFF7FEBFFFF7FEBFFFF75CBFFFF7FEBF98
:103F0000FFF7FEBFFFF7FEBFFFF7FEBFFFF7FEBFE5
:103F1000FFF7FEBFFFF7FEBFFFF7FEBFFFF7FEBFD5
:103F2000FFF7FEBFFFF7FEBFFFF7FEBFFFF7FEBFC5
:103F3000FFF7FEBFFFF7FEBFFFF7FEBFFFF7FEBFB5
:103F4000FFF7FEBFFFF7FEBFFFF7FEBFFFF7FEBFA5
:103F5000FFF7FEBF0000000001020304010203049A
:0C3F60000607080902040608FFFFFFFF27
:0400000508003E7938
:00000001FF
