:020000040800F2
:100000000015002081B2000811B1000813B10008EA
:1000100015B1000817B1000819B100080000000070
:100020000000000000000000000000001BB10008FC
:100030001DB10008000000001FB1000821B1000838
:10004000B1B20008B5B20008B9B20008BDB20008EC
:10005000C1B20008C5B20008C9B20008CDB200089C
:10006000D1B20008D5B20008D9B20008DDB200084C
:10007000E1B20008E5B20008E9B20008EDB20008FC
:10008000F1B20008F5B20008F9B20008FDB20008AC
:1000900063B1000805B3000809B300080DB30008F8
:1000A00011B3000815B3000819B300081DB3000808
:1000B00021B3000825B3000829B300082DB30008B8
:1000C00031B3000835B3000839B300083DB3000868
:1000D00041B3000829B1000849B300084DB3000836
:1000E00051B3000855B3000859B3000800000000E0
:1000F0000000000000000000000000000000000000
:1001000000000000000000005DB3000861B30008BB
:1001100065B3000869B300086DB3000871B3000847
:1001200075B3000879B300087DB3000881B30008F7
:1001300085B3000843B100088DB3000891B30008EF
:1001400095B3000899B300089DB30008A1B3000857
:1080000080B5DFF8740B002101814FF40071DFF8B7
:108010006C0B01F0B1F8DFF8601B0988C0B2C043F7
:1080200010F00100814210D0DFF84C0B808800284E
:108030000BD14FF40071DFF8440B01F09DF8C04301
:1080400010F00100DFF8301B48804FF40071DFF8BA
:108050002C0B01F091F8DFF8201B4988C0B2C04317
:1080600010F0010081423AD1DFF80C0B4088DFF8B4
:10807000081B0988884232D0DFF8FC0A8088401C3F
:10808000DFF8F41A8880DFF8F00A80880B2830D3F4
:10809000DFF8E40A4088DFF8E01A0880DFF8D80A41
:1080A00000218180DFF8D00A008801280AD1DFF89A
:1080B000C80A0121C180DFF8C00A0121418100F016
:1080C00041FF16E0DFF8B00A0221C180DFF8A80AFC
:1080D00000214181DFF8A00A0021818109E0DFF859
:1080E000980ADFF8941A09884180DFF88C0A002189
:1080F0008180DFF8840A4089012816D1DFF8780AE8
:108100008089401CDFF8701A8881DFF86C0A80894A
:1081100041F28831884208D3DFF85C0A41F28831A5
:108120008181DFF8540A01210181DFF8540A00211E
:1081300001814FF48071DFF8440A01F01DF8DFF887
:10814000401A0988C0B2C04310F00100814210D02B
:10815000DFF82C0A808800280BD14FF48071DFF8FB
:108160001C0A01F009F8C04310F00100DFF8101AF2
:1081700048804FF48071DFF8040A00F0FDFFDFF85B
:10818000001A4988C0B2C04310F0010081423AD1C0
:10819000DFF8EC094088DFF8E8190988884232D016
:1081A000DFF8DC098088401CDFF8D4198880DFF80C
:1081B000D00980880B2830D3DFF8C4094088DFF865
:1081C000C0190880DFF8B80900218180DFF8B00904
:1081D000008801280AD1DFF8A8090121C180DFF851
:1081E000A0090121418100F0ADFE16E0DFF8900901
:1081F0000221C180DFF8880900214181DFF8800970
:108200000021818109E0DFF87809DFF87419098815
:108210004180DFF86C0900218180DFF86409408922
:10822000012816D1DFF858098089401CDFF8501961
:108230008881DFF84C09808941F28831884208D36F
:10824000DFF83C0941F288318181DFF834090121EE
:108250000181DFF8E80C002101818021DFF81C0991
:1082600000F08AFFDFF8D41C0988C0B2C04310F0C8
:10827000010081420FD0DFF8C40C808800280AD1A9
:108280008021DFF8F80800F077FFC04310F001000C
:10829000DFF8A81C48808021DFF8E00800F06CFFC0
:1082A000DFF8981C4988C0B2C04310F00100814239
:1082B0003AD1DFF8880C4088DFF8801C09888842B2
:1082C00032D0DFF8780C8088401CDFF8701C888082
:1082D000DFF8680C80880B2830D3DFF8600C40880A
:1082E000DFF8581C0880DFF8540C00218180DFF88B
:1082F0004C0C008801280AD1DFF8400C0121C18014
:10830000DFF8380C0121418100F01CFE16E0DFF897
:108310002C0C0221C180DFF8240C00214181DFF800
:108320001C0C0021818109E0DFF8100CDFF80C1C27
:1083300009884180DFF8040C00218180DFF8FC0B04
:108340004089012816D1DFF8F40B8089401CDFF842
:10835000EC1B8881DFF8E40B808941F28831884288
:1083600008D3DFF8D80B41F288318181DFF8CC0BDC
:1083700001210181DFF8C80B002101814021DFF8D4
:10838000FC0700F0F9FEDFF8B81B0988C0B2C04353
:1083900010F0010081420FD0DFF8A40B8088002884
:1083A0000AD14021DFF8D40700F0E6FEC04310F008
:1083B0000100DFF88C1B48804021DFF8C00700F087
:1083C000DBFEDFF87C1B4988C0B2C04310F001001F
:1083D00081423AD1DFF8680B4088DFF8641B0988D6
:1083E000884232D0DFF8580B8088401CDFF8501BE1
:1083F0008880DFF84C0B80880B2830D3DFF8400BE7
:108400004088DFF83C1B0880DFF8340B00218180B6
:10841000DFF82C0B008801280AD1DFF8240B01219A
:10842000C180DFF81C0B0121418100F08BFD16E0BB
:10843000DFF80C0B0221C180DFF8040B0021418121
:10844000DFF8FC0A0021818109E0DFF8F40ADFF897
:10845000F01A09884180DFF8E80A00218180DFF8FE
:10846000E00A4089012816D1DFF8D40A8089401C2F
:10847000DFF8CC1A8881DFF8C80A808941F2883198
:10848000884208D3DFF8B80A41F288318181DFF8E9
:10849000B00A01210181DFF8D00B002101814FF4E6
:1084A0008071DFF8C80B00F067FEDFF8BC1B09889D
:1084B000C0B2C04310F00100814210D0DFF8A80B19
:1084C000808800280BD14FF48071DFF8A00B00F0FA
:1084D00053FEC04310F00100DFF88C1B48804FF4BE
:1084E0008071DFF8880B00F047FEDFF87C1B4988BD
:1084F000C0B2C04310F00100814238D1DFF8680BF0
:108500004088DFF8641B0988884230D0DFF8580BB8
:108510008088401CDFF8501B8880DFF84C0B808877
:108520000B282ED3DFF8400B4088DFF83C1B088077
:10853000DFF8340B00218180DFF82C0B0088012844
:1085400008D1DFF8240B0121C180DFF81C0B0121C9
:10855000418116E0DFF8100B0221C180DFF8080B23
:1085600000214181DFF8000B0021818109E0DFF863
:10857000F80ADFF8F41A09884180DFF8EC0A0021D4
:108580008180DFF8E40A4089012816D1DFF8D80A93
:108590008089401CDFF8D01A8881DFF8CC0A8089F6
:1085A00041F28831884208D3DFF8BC0A41F28831B1
:1085B0008181DFF8B40A01210181DFF8B40A0021CA
:1085C00001814FF48061DFF8A40A00F0D5FDDFF8E7
:1085D000A01A0988C0B2C04310F00100814210D037
:1085E000DFF88C0A808800280BD14FF48061DFF817
:1085F0007C0A00F0C1FDC04310F00100DFF8701AE2
:1086000048804FF48061DFF8640A00F0B5FDDFF8C0
:10861000601A4988C0B2C04310F00100814238D1CD
:10862000DFF84C0A4088DFF8481A0988884230D0C1
:10863000DFF83C0A8088401CDFF8341A8880DFF8B5
:10864000300A80880B282ED3DFF8240A4088DFF810
:10865000201A0880DFF8180A00218180DFF8100A4C
:108660000088012808D1DFF8080A0121C180DFF85D
:10867000000A0121418116E0DFF8F4090221C180DE
:10868000DFF8EC0900214181DFF8E4090021818154
:1086900009E0DFF8DC09DFF8D81909884180DFF844
:1086A000D00900218180DFF8C8094089012816D14E
:1086B000DFF8BC098089401CDFF8B4198881DFF835
:1086C000B009808941F28831884208D3DFF8A009D7
:1086D00041F288318181DFF898090121018101BDD2
:1086E00080B5DFF89009007800281DD14FF4806133
:1086F000DFF8780900F040FDC00704D4DFF8740902
:108700000221017010E04FF48071DFF8600900F081
:1087100033FDC00704D4DFF85C090121017003E0D8
:10872000DFF8540902210170DFF848090078DFF80A
:1087300048190978884237D0DFF8400900780028C6
:1087400032D1DFF834090078022814D1012208213F
:10875000DFF8180900F029FD01221021DFF80C09CB
:1087600000F023FDDFF8140901210170DFF8100982
:108770000021018018E0DFF800090078012813D1FA
:1087800001220821DFF8E40800F00FFD002210218B
:10879000DFF8D80800F009FDDFF8E00801210170DA
:1087A000DFF8DC0800210180DFF8D008007800281D
:1087B00073D0DFF8C4080078022828D14FF4806114
:1087C000DFF8A80800F0D8FCC00718D40022082160
:1087D000DFF8980800F0E9FC00221021DFF88C088F
:1087E00000F0E3FCDFF88C0802210170DFF88C0850
:1087F00000210170DFF888080021018034E0DFF8F3
:1088000080080088401CDFF8781808802CE0DFF82A
:1088100068080078012827D14FF48071DFF84C08F0
:1088200000F0AAFCC00718D400220821DFF83C0899
:1088300000F0BBFC00221021DFF8300800F0B5FC8E
:10884000DFF8300801210170DFF8300800210170E5
:10885000DFF82C080021018006E0DFF824080088FA
:10886000401CDFF81C180880DFF81408008840F26C
:10887000D171884211D300220821DFF8F00700F0FF
:1088800094FCDFF8F00703210170DFF8EC07032107
:108890000170DFF8E8070021017001BD80B5C0B2AA
:1088A000002811D1DFF8D0070121017001224FF417
:1088B0000071DFF8D00700F078FC01220121DFF819
:1088C000AC0700F072FC3BE0C0B2012811D1DFF828
:1088D000A8070121017001224FF40071DFF8A407FD
:1088E00000F063FC00220121DFF8800700F05DFC4E
:1088F00026E0C0B2022810D1DFF87C070221017007
:1089000001220221DFF8640700F04FFC002204215D
:10891000DFF8580700F049FC12E0C0B203280FD17D
:10892000DFF854070221017001220221DFF83C0721
:1089300000F03BFC01220421DFF8300700F035FC99
:1089400001BD80B5C0B2002807D100224FF40071EC
:10895000DFF8300700F029FC1DE0C0B2012807D184
:1089600000224FF40071DFF81C0700F01EFC12E03B
:10897000C0B2022806D100220221DFF8F00600F082
:1089800014FC08E0C0B2032805D100220221DFF860
:10899000DC0600F00AFC01BD80B5DFF8EC06C088FB
:1089A000401CDFF8E416C880DFF8DC0640880228A7
:1089B0002CD1DFF8D4060088012827D17048008820
:1089C00001280FD1DFF8C006808801280AD10120D4
:1089D000FFF7B7FFDFF8B00602210180DFF8A80635
:1089E000012141806448008801280FD1DFF89806F2
:1089F000808800280AD10020FFF7A3FFDFF888064F
:108A000002210180DFF8800601214180DFF878062D
:108A1000C088062820D3DFF870060021C180DFF867
:108A20006806008801280FD1DFF85C0680880028DE
:108A300002D10020FFF732FFDFF84C0680880128C2
:108A400002D10120FFF72AFFDFF83C060088022848
:108A500002D10020FFF775FFDFF83006C088401C08
:108A6000DFF82816C880DFF82406408802283CD1A9
:108A7000DFF818060088012837D1DFF8C404008821
:108A8000012809D000203C490988012904D050F070
:108A90000000C0B200280FD0DFF8F005808802285F
:108AA0000AD10220FFF74DFFDFF8E0050221018027
:108AB000DFF8D80501214180DFF880040088012813
:108AC00003D02F48008801280FD1DFF8C005808827
:108AD00003280AD10220FFF734FFDFF8B005022196
:108AE0000180DFF8A80501214180DFF8A005C088DA
:108AF000062820D3DFF894050021C180DFF88C051B
:108B0000008801280FD1DFF884058088022802D16F
:108B10000220FFF7C3FEDFF874058088032802D126
:108B20000320FFF7BBFEDFF864050088022802D1AE
:108B30000220FFF706FF01BDC0B201280CD1DFF80B
:108B40004805D2B24280DFF84005C9B20180DFF8A3
:108B50003805DBB283800EE0C0B202280BD1DFF80B
:108B60002C05D2B24280DFF82405C9B20180DFF8BB
:108B70001C05DBB2838070475804002000100140C0
:108B80006804002080B5DFF808050078012840F06F
:108B90009481DFF8FC044078022810D101230122DF
:108BA00002210120FFF7C8FF022301220221022037
:108BB000FFF7C2FFDFF8D804002101707DE1DFF884
:108BC000D004807801281BD0C0F07481032855D0D0
:108BD00035D3052800F090806FD3072800F0C880B7
:108BE000C0F0A980092800F0F980C0F0DC800B28D3
:108BF00000F02A81C0F00D810C2800F0408159E17D
:108C0000DFF88C04C078012809D101230122012159
:108C10000120FFF791FFDFF8780400210170DFF8F1
:108C20007004C078022809D1012302220121012009
:108C3000FFF782FFDFF85804002101703DE1DFF803
:108C40005004C078012809D100230122012101200C
:108C5000FFF772FFDFF8380400210170DFF83004FD
:108C6000C078022809D10023022201210120FFF748
:108C700063FFDFF81C04002101701EE1DFF810041F
:108C8000C078012809D10323012201210220FFF726
:108C900053FFDFF8FC0300210170DFF8F403C07814
:108CA000022809D10323022201210220FFF744FFF9
:108CB000DFF8DC0300210170FFE0DFF8D403C078A7
:108CC000012809D10223012201210220FFF734FFEC
:108CD000DFF8BC0300210170DFF8B403C07802287C
:108CE00009D10223022201210220FFF725FFDFF82C
:108CF000A00300210170E0E0DFF89403C0780128B0
:108D000009D10123022201210120FFF715FFDFF81D
:108D100080030021C170DFF870030088022809D1A8
:108D20000223012201210220FFF706FFDFF8600382
:108D300000210170C1E0DFF85803C078012809D193
:108D40000123022201210120FFF7F6FEDFF8400394
:108D50000021C170CC480088022808D103230122D9
:108D600001210220FFF7E8FEC94800210170A4E0BC
:108D7000C748C078012808D1002302220121012020
:108D8000FFF7DAFEC2480021C170BF480088022800
:108D900008D10223012201210220FFF7CDFEBC48A9
:108DA0000021017089E0BA48C078012808D1002369
:108DB000022201210120FFF7BFFEB5480021C1704A
:108DC000B1480088022808D1032301220121022092
:108DD000FFF7B2FEAE48002101706EE0AC48C078EB
:108DE000012808D10323022201210220FFF7A4FE5B
:108DF000A7480021C170A5480088022808D1002397
:108E0000012201210120FFF797FEA14800210170F6
:108E100053E09F48C078012808D103230222012192
:108E20000220FFF789FE9A480021C1709748008808
:108E3000022808D10123012201210120FFF77CFE35
:108E400093480021017038E09148C078012808D18A
:108E50000223022201210220FFF76EFE8C4800212E
:108E6000C1708A480088022808D10023012201210C
:108E70000120FFF761FE8648002101701DE0844853
:108E8000C078012808D10223022201210220FFF725
:108E900053FE7F480021C1707C480088022808D119
:108EA0000123012201210120FFF746FE784800211D
:108EB000017002E076480021017001BD80B575485F
:108EC0000088401C734908807248008841F289314B
:108ED000884231D36F48002101806F480078002814
:108EE0000BD10023012201210120FFF725FE0223DF
:108EF000012202210220FFF71FFE674800780128A7
:108F00000BD10023012202210120FFF715FE0223CD
:108F1000012201210220FFF70FFE5F4800780028A0
:108F200003D15D480121017006E05B48007801280B
:108F300002D159480021017001BD000078040020D1
:108F40008804002000B585B000A8142100F070F955
:108F5000002100208DF8000000208DF80100002085
:108F60008DF8020000208DF8030047480088012892
:108F700003D046480088012803D101208DF8040061
:108F800002E000208DF8040044480088012805D143
:108F90009DF8050050F001008DF80500404800885C
:108FA000012805D19DF8050050F002008DF805005C
:108FB0003C480088012805D19DF8050050F00400C8
:108FC0008DF8050038480088012805D19DF8050076
:108FD00050F008008DF8050023480088012805D1CD
:108FE0009DF8050050F010008DF80500204800881D
:108FF000012805D19DF8050050F020008DF80500EE
:1090000000208DF8060025480089012805D19DF82B
:10901000070050F008008DF807002148008901285A
:1090200005D19DF8070050F010008DF807001D488D
:109030000089012805D19DF8070050F020008DF827
:10904000070019480089012805D19DF8070050F054
:1090500040008DF8070008210123022289B200A8F0
:1090600000F03EFA05B000BD980400200018014051
:10907000A8040020FA04002018000020FB040020AF
:10908000F0040020000C0140C4040020CC040020A7
:10909000D4040020F2040020FC0400205804002026
:1090A000680400207804002088040020F0B4002226
:1090B0000026002400250023002791F803C01CF09F
:1090C0000F0C624691F803C05FEACC6C01D58B7837
:1090D0001A430B781B0621D00368002406E0CD78E4
:1090E000482D02D10125A5400561641C082C14D22D
:1090F0000125A5400E882E40AE42F6D1A5000F26D0
:1091000016FA05F7BB4312FA05F52B43CD78282D47
:10911000E5D10125A5404561E7E703600B884FF4E1
:109120008074A34226D34368002420E0012514F173
:109130000806B5400E882E40AE4217D1A5000F2676
:1091400016FA05F7BB4312FA05F52B43CD78282D07
:1091500004D1012514F10806B5404561CD78482DAC
:1091600004D1012514F10806B5400561641C082CE2
:10917000DCD34360F0BC70470022806880B20842B4
:1091800001D0012200E000221000C0B2704700228E
:10919000C06880B2084201D0012200E00022100025
:1091A000C0B2704789B201617047D2B2002A02D0C2
:1091B00089B2016101E089B24161704770B4002257
:1091C000002400230025194E36683300C0F30346FF
:1091D000350086B2320010F44016B6F5401F08D1B3
:1091E00033F07063114C246834F070640F4D2C60C0
:1091F0000FE0C40205D50324AC40A34353F07063D1
:1092000007E0440DE4B2240112FA04F4A34353F03E
:109210007063C9B2002905D0400DC0B2000112FA36
:1092200000F003430148036070BC70470400014034
:10923000002200F001BA10B450F8041B81B102689A
:109240001218001D50F8043BDC0744BFA9F10104CB
:10925000E31852F8044B43F8044B091FF9D1EBE72C
:1092600010BC7047DFF89C0332214181DFF898136E
:1092700001600021C180818070470FB5DFF8840351
:10928000C188491C428991FBF2F302FB13118288C9
:10929000914210D0C188491C428991FBF2F302FB34
:1092A0001311C180C1880E22006802FB010000A9D1
:1092B0000E2200F0D9F90FBD0FB585B09DF817004B
:1092C0009DF8161011F00F0150EA01209DF81510BD
:1092D00011F07F0150EA01309DF8141011F00301E4
:1092E00050EAC1409DF8181050EA41500190042006
:1092F0008DF8080000208DF809009DF819008DF800
:109300000A009DF80A200DF11A010DF10B0000F082
:10931000E3F900A9BD4800F03BFB09B000BD0FB464
:109320001CB500240598C00C10F003008DF8000057
:109330000598000B10F07F008DF801000598000AD9
:1093400010F00F008DF8020005988DF803000598C5
:10935000400D8DF804009DF80400AD49097888425D
:1093600040F096809DF8000000280CD19DF81A204E
:109370000DF11B01A74800F0AFF99DF81A00A649AE
:109380000880012476E09DF80000012812D19DF8A4
:109390001A200DF11B019F4800F09EF99F48012102
:1093A00001709DF801009E4908709DF81A009D49C2
:1093B00008805FE09DF80000022829D197480078D6
:1093C000012857D19DF8010095490978491C884228
:1093D00050D1944800889DF81A100818B0F5967F6F
:1093E00048DC9DF81A200DF11B018E480088894B3E
:1093F000C01800F071F98A480078401C884908704C
:10940000884800889DF81A1008188649088031E0BD
:109410009DF8000003282DD180480078012829D12B
:109420009DF801007E490978491C884222D17D4877
:1094300000889DF81A100818B0F5967F1ADC9DF880
:109440001A200DF11B0177480088724BC01800F0FC
:1094500043F9744800889DF81A1008186E4908806E
:1094600001246E48002101706D48002101706D4893
:1094700000210180E4B2012C0AD1E4B2012C07D111
:1094800000249DF802209DF80310624800F003F8C4
:1094900013BC5DF814FB80B5D2B2032A02D100F0F0
:1094A00002F8FFE701BD00214278837852EA0322E7
:1094B00011005D4A128889B2914210D05A4A118037
:1094C000017803290BD1594901220A705749C27802
:1094D0004A70564902798A7054494079C870704779
:1094E0007FB504000D008DF802208DF80430484847
:1094F00000788DF80300ADB2092D13D200208DF84D
:10950000000000208DF801008DF805509DF8052021
:1095100021000DF1060000F0DFF800A80FC8FFF7EA
:10952000ACFE4AE001208DF8000000208DF801001B
:1095300008208DF805009DF8052021000DF106009A
:1095400000F0CAF800A80FC8FFF797FE082617E03A
:1095500002208DF800009DF80100401C8DF80100EC
:1095600008208DF805009DF80520B6B231190DF1DF
:10957000060000F0B1F800A80FC8FFF77EFE08361D
:10958000B6B216F10800ADB2A842E1DB03208DF8B7
:1095900000009DF80100401C8DF80100A81B8DF80B
:1095A00005009DF80520B6B231190DF1060000F056
:1095B00093F800A80FC8FFF760FE7FBD30B585B0F7
:1095C000104C0021A088E288904218D0A588ADB246
:1095D000681C618990FBF1F201FB1205ADB20E200F
:1095E000216800FB051100A80E2200F03DF800A83C
:1095F0000FC8FFF761FEC0B2042800D0A58005B0F7
:1096000030BD0000B80400201C00002000640040B1
:10961000FE040020D8020020EC040020F804002002
:10962000F9040020EE04002014000020D4040020DF
:1096300062F30F2262F31F4200B513009646944670
:10964000103928BFA0E80C50FAD85FEA417C28BF47
:109650000CC048BF40F8042BC90728BF20F8022BD4
:1096600048BF00F8012B00BD4AB38B0707D0521E3C
:1096700011F8013B00F8013B21D08B07F7D183079C
:109680001ED1103A07D330B4B1E83810103AA0E830
:109690003810F9D230BC530724BFB1E80810A0E855
:1096A000081044BF51F8043B40F8043BD20724BFE4
:1096B00031F8022B20F8022B44BF0B78037070475F
:1096C000083A07D3B1E80810083A40F8043B40F8DC
:1096D00004CBF7D25307E4E710B504002000FFF7EE
:1096E000C3FF200010BD50F8041B61B150F8042BDB
:1096F000D30744BFA9F101039A18002342F8043BA1
:10970000091FFAD1EFE7704780B5944988420AD122
:1097100001215FF0007000F041FB00215FF000705C
:1097200000F03CFB09E001215FF0806000F036FBB7
:1097300000215FF0806000F031FB01BD10B4002219
:109740000023046834F002040460046854F0010447
:10975000046000E05B1C4268D20703D44FF6FF723E
:109760009342F7D14268D20701D400226AE08A7995
:10977000012A04D1026852F08002026003E002680C
:1097800032F080020260CA79012A04D1026852F0E4
:109790004002026003E0026832F0400202600A7A8E
:1097A000012A04D1026852F02002026003E002683C
:1097B00032F0200202604A7A012A04D1026852F093
:1097C0001002026003E0026832F0100202608A7A3E
:1097D000012A04D1026852F00802026003E0026824
:1097E00032F008020260CA7A012A04D1026852F0FB
:1097F0000402026003E0026832F0040202608A7828
:10980000CB781B0653EA82720B7952EA03424B79FA
:1098100052EA03520988491E1143C161016849088F
:1098200049000160002300E05B1C4168C90703D5C3
:109830004FF6FF718B42F7D14068C00701D5002277
:1098400000E001221000C0B210BC704710B400212B
:109850000122837A9A401100414A126852F00102B3
:109860003F4B1A603F4A12688A433E4B1A60027BA4
:10987000002A15D13C4A12688A433B4B1A60C288C1
:10988000438853EA0242837A384C44F83320827A80
:10989000364B13EBC2028388048854EA03435360B7
:1098A000027B012A15D1304A12680A432E4B1A60F6
:1098B0000288438853EA0242837A2C4C44F83320CE
:1098C000827A2A4B13EBC2028388C48854EA03438A
:1098D0005360C27A002A05D1254A12688A43244B74
:1098E0001A6004E0224A12680A43214B1A60028976
:1098F000002A04D11F4A12688A431E4B1A6002894B
:10990000012A04D11B4A12680A431A4B1A60407B91
:10991000012804D113480068084312490860104820
:109920000068400840000E49086010BC70470021E4
:1099300081710021C1710021017200214172002159
:1099400081720021C172002181700021C170032148
:1099500001710221417101210180704700640040C2
:10996000006600401C6600400C66004040660040F7
:109970000466004014660040D2B2002A03D0426957
:109980001143416103E0426932EA010141617047DC
:1099900030B4002283685B0101D500220AE08268AE
:1099A000120101D5012205E08268D20001D5022210
:1099B00000E00422D2B2042A75D0D2B210EB021316
:1099C000D3F8803113F00103D2B210EB0214C4F8C3
:1099D00080310B7A002B0FD1D2B210EB0213D3F8E7
:1099E00080310C684D7A55EA44542343D2B210EBCF
:1099F0000214C4F8803110E0D2B210EB0213D3F895
:109A000080314C680D7A55EAC4044D7A2C432343C7
:109A1000D2B210EB0214C4F880318B7A13F00F032A
:109A20008B72D2B210EB0213D3F884311B091B01E5
:109A3000D2B210EB0214C4F88431D2B210EB02138C
:109A4000D3F884318C7A2343D2B210EB0214C4F8D9
:109A500084318B7B4C7B240454EA03630C7B53EAF4
:109A60000423CC7A2343D2B210EB0214C4F8883119
:109A70008B7C4C7C240454EA03630C7C53EA04235F
:109A8000C97B1943D2B210EB0213C3F88C11D2B2C6
:109A900010EB0211D1F8801151F00101D2B210EB9C
:109AA0000210C0F880111000C0B230BC7047C9B2BB
:109AB000002902D12021C16001E02021016170470D
:109AC00080B5C9B210EB0113D3F8B03113F0040321
:109AD0001372137A002B07D1C9B210EB0113D3F81C
:109AE000B0315B0D136006E0C9B210EB0113D3F87F
:109AF000B031DB085360C9B210EB0113D3F8B031B9
:109B000013F002035372C9B210EB0113D3F8B4314E
:109B100013F00F039372C9B210EB0113D3F8B431F1
:109B20001B0AD374C9B210EB0113D3F8B831D37246
:109B3000C9B210EB0113D3F8B8311B0A1373C9B2C1
:109B400010EB0113D3F8B8311B0C5373C9B210EBEF
:109B50000113D3F8B8311B0E9373C9B210EB011384
:109B6000D3F8BC31D373C9B210EB0113D3F8BC31B5
:109B70001B0A1374C9B210EB0113D3F8BC311B0CD0
:109B80005374C9B210EB0113D3F8BC311B0E93749C
:109B9000C9B2FFF78CFF01BD042926D0052919D0D1
:109BA00006291AD007291CD0082921D0202922D023
:109BB000402923D0B1F5807F23D0B1F5007F25D097
:109BC000B1F5806F27D0B1F5803F29D0B1F5003FC6
:109BD00029D02BE00121816028E04FF48071816061
:109BE00024E05FF48031816020E00821C1601DE045
:109BF0001021C1601AE00821016117E01021016104
:109C000014E081694908490081610FE0816931F000
:109C1000020181610AE0816931F00401816105E09E
:109C20000821416002E010214160FFE77047000019
:109C3000F0B5002500210027002600220023002483
:109C40005FF0000CDFF874E1DEF800E01EF00C0EAF
:109C50007546002D04D0042D05D0082D06D041E016
:109C60005849016040E0584901603DE053490968A6
:109C700011F47011514A126812F48037890C0D29C1
:109C800001D0891C00E00621002F03D14F4A514327
:109C9000016026E04A4A126812F48032484B1B6881
:109CA00013F00F035B1C002A06D1474AB2FBF3F204
:109CB00001FB02F1016014E0414A1268C2F3031291
:109CC000541C3F4A1268C2F3032212F1020C3E4AAE
:109CD000B2FBF4F20CFB02F2B2FBF3F201FB02F175
:109CE000016001E0374901603449096811F0F0056D
:109CF0002D0937496E5C0168F14041602F490968C0
:109D000011F4E0652D0A32496E5C4168F1408160D2
:109D10002A49096811F46055ED0A2D496E5C4168C5
:109D2000F140C1602549096811F44045AD0B29494E
:109D30006E5CC168B1FBF6F10161F0BDC9B20029EA
:109D400005D02549096808432349086005E02249F0
:109D5000096831EA0000204908607047C9B200294B
:109D600005D01E49096808431C49086005E01B49E5
:109D7000096831EA0000194908607047C9B2002932
:109D800005D01749096808431549086005E01449DA
:109D9000096831EA0000124908607047C9B2002919
:109DA00005D01049096808430E49086005E00D49CF
:109DB000096831EA00000B4908607047041002404E
:109DC0002C10024000127A0040787D0100093D000D
:109DD0000000002010000020141002401810024063
:109DE0001C1002401010024040B2002809D540B2B9
:109DF00010F00F00DFF8E4248018090100F8041CBB
:109E000004E040B2DFF8D82409018154704780B5DE
:109E1000B0F1807F01D3012013E00002000A401E50
:109E2000DFF8C01408600F215FF0FF30FFF7DCFFA0
:109E3000DFF8B40400210160DFF8B00407210160FD
:109E4000002002BD00B585B04FF4165000900020F0
:109E5000ADF804000020ADF806000020ADF80800C1
:109E60000020ADF80C000C20ADF80A0000A9DFF8C6
:109E7000800400F08BFA012240F22551DFF87004D3
:109E800000F0DEFA0121DFF8680400F0CBFA05B03B
:109E900000BD00B587B0DFF85C04FFF735FC00A813
:109EA000FFF745FD00208DF8060001208DF8070022
:109EB00000208DF8080000208DF8090000208DF8A2
:109EC0000A0001208DF80B0000208DF80200002010
:109ED0008DF803000C208DF8040001208DF805009A
:109EE0001220ADF8000000A9DFF80804FFF726FCF7
:109EF00000208DF8160000208DF8170001208DF845
:109F000018000020ADF80C000020ADF80E00002075
:109F1000ADF810000020ADF812000020ADF81400DC
:109F200001208DF8190003A8FFF790FC01220221FF
:109F3000DFF8C003FFF720FD07B000BD00B587B014
:109F400001214FF40060FFF709FF0121DFF8A803AA
:109F5000FFF734F94FF42060ADF8000004208DF8CD
:109F6000030003208DF8020000A9DFF89003FFF73B
:109F70009DF84FF6FF70ADF808000020ADF8040022
:109F80000020ADF80A000020ADF8060001A9DFF8B6
:109F9000700300F0B7FA002300220321DFF860030A
:109FA00000F021FB04A800F005FB0620ADF8180026
:109FB00004A9DFF84C0300F0C5FA0021DFF84003E4
:109FC00000F030FB0121DFF8380300F0FEFA07B0A3
:109FD00000BD00B585B000F0CDFB01215FF0D05091
:109FE000FFF7CCFE0121DFF81C03FFF7A7FE0121DC
:109FF00044F27D00FFF7B2FE00F090F900F01AF88D
:10A00000FFF720FFFFF745FFFFF798FF012000F063
:10A010007DFC00A8FFF70CFE00984FF47A71B0FBAE
:10A02000F1F0FFF7F4FE00215FF0FF30FFF7DCFEF8
:10A0300005B000BD80B50420ADF8000003208DF808
:10A04000020018208DF8030000A9AF48FFF72EF892
:10A050000620ADF8000003208DF8020018208DF8CE
:10A06000030000A9A948FFF721F843F62010ADF836
:10A07000000003208DF8020018208DF8030000A9CD
:10A08000A348FFF713F801215FF02010FFF796F8BF
:10A090000B20ADF8000003208DF8020004208DF89D
:10A0A000030000A99848FFF701F84FF48060ADF86D
:10A0B000000003208DF8020004208DF8030000A9A1
:10A0C0009348FEF7F3FF0820ADF8000003208DF859
:10A0D000020004208DF8030000A98C48FEF7E6FF7B
:10A0E0004FF4F850ADF8000003208DF80200042072
:10A0F0008DF8030000A98748FEF7D8FF4FF4807061
:10A10000ADF8000003208DF8020018208DF8030040
:10A1100000A97D48FEF7CAFF1020ADF8000010200E
:10A120008DF8030003208DF8020000A97948FEF79E
:10A13000BDFF4FF40070ADF8000018208DF803004B
:10A1400003208DF8020000A96F48FEF7AFFF4FF41F
:10A150008060ADF8000004208DF8030000A96A4873
:10A16000FEF7A4FF4FF40060ADF8000010208DF85A
:10A17000030003208DF8020000A96348FEF796FF54
:10A180004FF47540ADF8000004208DF80300032063
:10A190008DF8020000A95948FEF788FF0220ADF8AB
:10A1A000000004208DF8030003208DF8020000A9B0
:10A1B0005748FEF77BFF4FF47070ADF800000420A5
:10A1C0008DF8030003208DF8020000A94F48FEF728
:10A1D0006DFF4FF46040ADF8000004208DF80300DF
:10A1E00003208DF8020000A94A48FEF75FFF4FF4F4
:10A1F0002060ADF8000004208DF8030003208DF8E6
:10A20000020000A93D48FEF751FF01214248FEF738
:10A21000D5FF4FF40070ADF8000010208DF803005A
:10A2200003208DF8020000A93948FEF73FFF7F2088
:10A23000ADF8000010208DF8030003208DF8020017
:10A2400000A92E48FEF732FF41F2F000ADF8000001
:10A2500004208DF8030003208DF8020000A92A488D
:10A26000FEF724FF4FF48040ADF8000004208DF885
:10A27000030003208DF8020000A92548FEF716FF11
:10A280000C20ADF8000004208DF8030003208DF8A9
:10A29000020000A91F48FEF709FF0120ADF80000E9
:10A2A00048208DF8030003208DF8020000A919480A
:10A2B000FEF7FCFE0220ADF8000018208DF8030028
:10A2C00003208DF8020000A91248FEF7EFFE0121DD
:10A2D0005FF4EB10FEF772FF01BD000018ED00E027
:10A2E00000E400E014E000E018E000E010E000E02E
:10A2F0000038014000640040C00016000018014012
:10A30000002C014003C00100000801400010014082
:10A31000000C0140001401400002300080B5002113
:10A320005FF0006000F030FB4FF4A06000F0F4FA42
:10A330003D208DF8000002208DF8010000208DF8EE
:10A34000020001208DF8030000A800F0EAFA2520A1
:10A350008DF8000000208DF8010001208DF802002A
:10A3600001208DF8030000A800F0DBFA14208DF81E
:10A37000000000208DF8010001208DF8020001206E
:10A380008DF8030000A800F0CCFA01BDF0B585B04F
:10A3900004000D0000200021002200230026AF89C8
:10A3A000002F2600208A4CF6FF710840E9880843F8
:10A3B0002082A0894EF6F3110840A9882A8911430A
:10A3C0006A8911430843A081A08A4FF6FF410840E3
:10A3D000A9890843A08200A8FFF72AFC10488642FA
:10A3E00001D1039900E00299192000FB01F02968CE
:10A3F0008900B0FBF1F26420B2FBF0F0000101092A
:10A40000642303FB1123190132316422B1FBF2F101
:10A4100011F00F010843208105B0F0BD00000000DD
:10A4200000380140C9B2002904D0818951F400519B
:10A43000818104E081894DF6FF721140818170476E
:10A44000F0B4002300240025002640F66A1789B2E4
:10A45000B94206000800C0B24309DBB289B211F06C
:10A460001F04012010FA04F5012B01D10C3604E081
:10A47000022B01D1103600E01436D2B2002A03D0EC
:10A4800030682843306002E03068A8433060F0BC98
:10A49000704789B28A0589B2C9430180704770B498
:10A4A000002300240025002240F66A1689B2B1423A
:10A4B0000A00D2B25509EDB289B211F01F0401228F
:10A4C00012FA04F4012D02D18289144006E0022D13
:10A4D00002D1028A144001E0828A144089B20B0A38
:10A4E0009BB2012111FA03F300880340002C03D032
:10A4F000002B01D0012200E000221000C0B270BC8D
:10A500007047000010B4028812F08F0202800288A7
:10A51000CB884C8823431A4302808A8882850A8824
:10A520000285064A904202D0054A904201D1097A3A
:10A5300001860121818210BC70470000002C01407F
:10A540000034014038B504000D00288800280AD1E5
:10A550002B89AA886988200000F08CF8E9882000FF
:10A5600000F062F825E0288804280AD12B89AA88FF
:10A570006988200000F09AF8E988200000F05DF872
:10A5800017E0288808280AD12B89AA886988200022
:10A5900000F0ADF8E988200000F059F809E02B89B7
:10A5A000AA886988200000F0C3F8E988200000F03C
:10A5B00057F831BD002101800021418001218180B7
:10A5C0000021C180002101817047C9B2002904D057
:10A5D000018851F00101018004E0018840F2FE325F
:10A5E000114001807047F0B400240025002607893F
:10A5F0003C00078B3D00078C3E004FF6F8773C404F
:10A600000C434FF6FC410D4040F201110D434FF653
:10A61000DD710E4052EA03110E4304810583068466
:10A62000F0BC704781847047028B4FF6F3731A4079
:10A630000283028B114301837047028B4FF2FF3379
:10A640001A400283028B52EA012101837047828BF8
:10A650004FF6F3731A408283828B114381837047D4
:10A66000828B4FF2FF331A408283828B52EA0121A0
:10A6700081837047F0B400240025068C4FF6FE77E6
:10A680003E400684068B3400068C35004FF60C766F
:10A69000344052EA031214434FF6FD72154051F054
:10A6A00001010D4304830584F0BC7047F0B400251C
:10A6B00000260024078C4FF6EF7C1CEA070707846E
:10A6C000078B3D00078C3E0009010C0040F6FF415E
:10A6D0000D4055EA033555EA02254FF6DF710E406D
:10A6E00054F010010E4305830684F0BC7047F0B4AB
:10A6F000002600240025078C4FF6FF6C1CEA070794
:10A700000784878B3E00078C3C0009020D004FF642
:10A710000C710E4052EA03110E434FF6FF510C40EC
:10A720004FF4807129430C4386830484F0BC704746
:10A73000F0B4002500260024078C4EF6FF7C1CEAAE
:10A7400007070784878B3D00078C3E0009030C0038
:10A7500040F6FF410D4055EA022555EA03354DF616
:10A76000FF710E4054F480510E4385830684F0BC83
:10A770007047000080B55C48006850F001005A49FD
:10A7800008605A4800685A490840584908605648C5
:10A79000006858490840544908605348006830F43C
:10A7A0008020514908605148006830F4FE004F494C
:10A7B00008604D48006830F0A0504B4908604E4892
:10A7C0005FF47F0101604D480021016000F001F855
:10A7D00001BD80B500F001F801BD82B000200190FC
:10A7E000002000904048006850F480303E490860E6
:10A7F0003D48006810F4003000900198401C019022
:10A800000098002803D10198B0F5A06FF0D1364828
:10A810000068800302D50120009001E00020009034
:10A82000009801285FD13648006850F01000344984
:10A83000086033480068800880003149086030486B
:10A84000006850F002002E4908602848274909682E
:10A85000016026482549096801602448006850F4D1
:10A86000806022490860254800682649084023493D
:10A8700008602248006824490843204908601A48B3
:10A88000006850F0806018490860174800680001AF
:10A89000FBD51648006830F47C1014490860134852
:10A8A000006850F4E810114908600F48006850F043
:10A8B00080700D4908600C4800688001FBD50B488A
:10A8C000006880088000094908600848006850F066
:10A8D0000200064908600548006810F00C000828CE
:10A8E000F9D102B07047FEE70010024004100240A8
:10A8F0000000FFF0FFFFF6FE081002402C1002409F
:10A900000020024000F0FEFF440601000149C0B2F1
:10A910000860704720000E421E4908431E49086027
:10A92000704710B4002100220F23C478002C1ED0E1
:10A930001949096811F4E061D1F5E061090AD1F122
:10A940000402CB404178914082781A4011430901BA
:10A950000278124BD15401784911114A0123007831
:10A9600010F01F0013FA00F042F821000AE001780D
:10A9700049110C4A0123007810F01F0013FA00F06F
:10A9800042F8210010BC7047074A114008430749AC
:10A99000086070470000FA050CED00E000E400E0FC
:10A9A00000E100E080E100E080FFFF1F08ED00E033
:10A9B000F8B50E0014000027C0B2002805D0022808
:10A9C00005D003D3032817D017E0143714370E37F8
:10A9D000E4B2002C00F08A80022C00F0AD80C0F0C0
:10A9E000AB80032C40F0B880082000F0F3F805009D
:10A9F000002D04D1002078E0EAE7002075E02C73F8
:10AA000000202860BFB278191030C01C8008800078
:10AA1000686068680421B0FBF1F202FB1102002AB1
:10AA20002E81B6B240F2DC50BFB2F91C31F0030106
:10AA3000401A864201DA300006E040F2DC50F91C90
:10AA40004FF6FC721140401A688105F2EC5069899A
:10AA50006A688918884240F2DC50BFB2F91C31F0B4
:10AA60000301401A01280120E8812F00B6B268894D
:10AA7000361A17E040F2DC51418110F110014160BB
:10AA800041680422B1FBF2F303FB1213002B05F221
:10AA9000EC516A896B68D21891420121C1814189C8
:10AAA000761A0700012E1BDB082000F093F800281F
:10AAB00004D1280000F052F8002016E004730021B1
:10AAC00041730021016038604FF6FF718E420681AC
:10AAD000310040F2DC5289B29142CBD23100CBE757
:10AAE0000120E881002068732800F2BD17F11300EF
:10AAF0004FF6FC710840B6B2F11C31F003010818A2
:10AB000080B200F002F90500002D01D10020ECE731
:10AB1000BFB278191030C01C8008800068602E8198
:10AB20006E81002028602C7368680421B0FBF1F26C
:10AB300002FB1102002AD3E7072000F04BF80500C2
:10AB4000002D01D10020D0E7002068602E816E81A9
:10AB5000002028602C73C3E70020C6E738B5002822
:10AB600002D10028002033E0017B002907D0017BBF
:10AB7000012904D0017B022901D0017B0329002592
:10AB800003E000F09DF86D1C200000281ED0C18954
:10AB90000129C189491EC18189B2002914D10468E3
:10ABA000017B89B2032904D10100082000F02AF8B2
:10ABB000E9E789B2012902D089B20229E1D1010075
:10ABC000072000F01FF8DEE70020DEE72800C0B213
:10ABD00032BD0000C0B2092801D3002011E0C0B28C
:10ABE000124951F8201000290AD0C0B20F4A0B6850
:10ABF00042F820300420B1FBF0F202FB1012002AD0
:10AC00000800704700290ED00422B1FBF2F303FBC9
:10AC10001213002BC0B2054A52F820200A60C0B2BD
:10AC2000024A42F82010704700000000340400205F
:10AC3000DFF8F81109688842DFF8F41109688842E2
:10AC400001790029018845F2010291420188DFF86B
:10AC5000DC2112688918884218D00A79002A15D197
:10AC6000DFF8CC211268914210D0DFF8C8211268B9
:10AC70008A4201D16F4A10600A88028009886B4AB3
:10AC800012688918694A1268821A4A804188674A9C
:10AC900012688918814212D00A79002A0FD1654AB8
:10ACA0001268824201D1634A116002880A800088DA
:10ACB0005E4A126880185D4A1268891A418070479E
:10ACC00080B5002820D010F00301002957490968F9
:10ACD000884203D3564909688842FFD3534909681B
:10ACE000884203D352490968884200D30CE00838EF
:10ACF00001790029002101714E490968884201D279
:10AD00004C490860FFF794FF01BD30B480B20028C1
:10AD100001D1002086E0C01C4FF6FC71084080B2D3
:10AD20000C2800D20C2045F2010180B2884201D3E8
:10AD3000002077E03F4909683C4A1268891A03E01D
:10AD400089B23A4A1268895A89B280B2D0F5A042D3
:10AD5000914266DA89B2354A12688A181379002B53
:10AD6000EED1138889B25B1A083B80B28342E7D3E5
:10AD7000138889B25B1A083B80B210F11404A34215
:10AD800017D3431808339BB2284C24681C1900259C
:10AD9000257115882580618013800121117121881A
:10ADA000B1F5A04F07D02188204C246809194B80A9
:10ADB00001E0012111711F4909688A421DD107E094
:10ADC0001C4909680988194B1B68C918194B196077
:10ADD000184909680979002905D016490968144BF2
:10ADE0001B689942ECD113490968114B1B689942C1
:10ADF00003D010490968097900290D49096880B212
:10AE000080180830814212F108000421B0FBF1F3F0
:10AE100003FB1103002B12F00300002812F10800BD
:10AE200000E0002030BC704700000000DC0400207F
:10AE3000E0040020E404002070B50024002548E070
:10AE40004FF480415F48FEF797F9002801D054F095
:10AE500001044FF480515C48FEF78EF9002801D0C0
:10AE600054F0020480215848FEF786F9002801D0EA
:10AE700054F0040440215448FEF77EF9002801D024
:10AE800054F0080420215048FEF776F9002801D03C
:10AE900054F0100410214C48FEF76EF9002801D040
:10AEA00054F0200404214948FEF766F9002801D037
:10AEB00054F0400408214548FEF75EF9002801D00F
:10AEC00054F08004F6B2E4B2A64201D02600002578
:10AED0006D1CEDB2142DB3D3F6B2F0433C490870AB
:10AEE00070BD80B53B480088012815D13948002144
:10AEF000018039480078002804D037480078401E87
:10AF00003549087010213148FEF741F9002803D176
:10AF100010212E48FEF746F901BD80B5FFF759F81C
:10AF2000FFF78AFF00F024F8FFF7DBFF00F027F8B7
:10AF3000FEF744FBF8E729480068401C27490860F1
:10AF40002748012101702748008800280FD0254894
:10AF50000088401E2349088022480088002806D126
:10AF600020484FF47A7101801A480121018070470E
:10AF700080B5FEF777F91C480021017001BD80B54E
:10AF80001748007801281CD1154800210170174886
:10AF90000088401C15490880FDF732F8FDF7A0FB3A
:10AFA000FDF7FAFCFDF78AFFFDF7ECFD0F4800887E
:10AFB00040F22D11884204D30C4800210180FDF796
:10AFC000C1FF01BD000C0140000801400014014018
:10AFD000FE040020F4040020FD040020D80400201A
:10AFE000FF04002016000020D4040020F6040020F6
:10AFF000FEB50026002400A800F040F80099019F4B
:10B00000032289B20320FFF7D3FC0400002C0BD0ED
:10B01000250007E06A89F1196868FEF75DFB688919
:10B0200086192D68002DF5D102985FF0004101606E
:10B0300034480068000605D5324880210160324856
:10B04000002101602000FEBD38B504002000FFF79C
:10B05000CFFF0500002D02D15FF0FF300DE0210091
:10B06000280022699047040064B2002C03D0280015
:10B07000FFF774FD0025200040B232BD3EB4002130
:10B0800000AA00230024002538C20C3A1F4A126887
:10B090001268002A11D5002100911A490968090691
:10B0A00005D5184980220A60174900220A6000A9C4
:10B0B0001CC91CC00C390C3822E014490968096805
:10B0C00011F403414FF4407291420AD10F490968CB
:10B0D0000968C1F30D41091F0C4A12689268019278
:10B0E00000E00021009109490968029107490968B7
:10B0F000C968064A116000A91CC91CC00C390C386B
:10B100003EBC70471490024008900240E8040020C2
:10B110007047FEE7FEE7FEE7FEE7704770477047BF
:10B1200080B5FFF708FF01BD80B540F225511848F2
:10B13000FFF7B5F9002803D020211548FFF7A9F93A
:10B1400001BD80B501E000F027F800F02DF80028DF
:10B15000F9D1402000F03FF85FF4803000F03BF878
:10B1600001BD00B587B001AA00210A48FEF7A8FC7E
:10B1700002210848FEF710FD01A984B06846142298
:10B18000FEF77FFA0FBCFEF7CAF807B000BD00005B
:10B19000003801400064004080B50248FFF754FFCA
:10B1A00001BD00000404002080B50020DFF830104D
:10B1B00009680968DFF82C2011404FF44072914271
:10B1C00004D1DFF81C00006800F001F802BD00683F
:10B1D000C0F30D407047DFF81010086070470000A2
:10B1E000E8040020008300801490024010B5084954
:10B1F00079441C31074C7C441A34A14206D0081D06
:10B200000A68511888470146A142F8D110BD00BF15
:10B210000800000028000000CFE4FFFFE404000065
:10B220001C000020000000000FE0FFFF1C000000D9
:10B2300074010000000000200000000000F009F888
:10B24000002801D0FFF7D2FF0020FFF766FE00F0D4
:10B2500002F80120704780B500F002B800BF00007E
:10B260000746384600F002F8FBE7000080B5C0460C
:10B27000C046024A11001820ABBEFBE726000200C0
:10B28000C046C046C046C046FFF7D8FFFFF740BFE4
:10B29000FFF73FBFFFF73EBFFFF73DBFFFF73CBFE4
:10B2A000FFF73BBFFFF73ABFFFF739BFFFF738BFE4
:10B2B000FFF7FEBFFFF7FEBFFFF7FEBFFFF7FEBFC2
:10B2C000FFF7FEBFFFF7FEBFFFF7FEBFFFF7FEBFB2
:10B2D000FFF7FEBFFFF7FEBFFFF7FEBFFFF7FEBFA2
:10B2E000FFF7FEBFFFF7FEBFFFF7FEBFFFF7FEBF92
:10B2F000FFF7FEBFFFF7FEBFFFF7FEBFFFF7FEBF82
:10B30000FFF72FBFFFF7FEBFFFF7FEBFFFF7FEBF40
:10B31000FFF7FEBFFFF7FEBFFFF7FEBFFFF7FEBF61
:10B32000FFF7FEBFFFF7FEBFFFF7FEBFFFF7FEBF51
:10B33000FFF7FEBFFFF7FEBFFFF7FEBFFFF7FEBF41
:10B34000FFF7FEBFFFF7F0BEFFF7FEBFFFF7FEBF40
:10B35000FFF7FEBFFFF7FEBFFFF7FEBFFFF7FEBF21
:10B36000FFF7FEBFFFF7FEBFFFF7FEBFFFF7FEBF11
:10B37000FFF7FEBFFFF7FEBFFFF7FEBFFFF7FEBF01
:10B38000FFF7FEBFFFF7FEBFFFF7DBBEFFF7FEBF15
:10B39000FFF7FEBFFFF7FEBFFFF7FEBFFFF7FEBFE1
:10B3A000FFF7FEBF000000000102030401020304D6
:10B3B0000607080902040608FFFFE8030200000070
:040000050800B281BC
:00000001FF
